:020000040800F2
:100000001007002035020008EF150008B31500089E
:10001000ED1500086B060008E91B00080000000051
:100020000000000000000000000000009D17000814
:100030006D06000800000000F11500089F17000879
:100040004F0200084F0200084F0200084F0200084C
:100050004F0200084F0200084F0200084F0200083C
:100060004F0200084F0200084F0200084F0200082C
:100070004F0200084F0200084F0200084F0200081C
:100080004F0200084F0200084F0200084F0200080C
:100090004F0200084F0200084F0200084F020008FC
:1000A0004F0200084F0200084F0200084F020008EC
:1000B0004F02000800000000000000004F0200088E
:1000C0004F02000800000000000000004F0200087E
:1000D000000000004F0200084F020008000000006E
:1000E0004F0200084F02000800000000000000005E
:1000F0000000000000000000000000000000000000
:100100000000000000000000000000004F02000896
:1001100000000000000000004F0200084F0200082D
:100120004F0200084F0200084F0200084F0200086B
:100130004F02000800000000000000000000000066
:100140004F0200084F0200084F0200084F0200084B
:100150004F0200084F0200084F0200084F0200083B
:100160004F0200084F0200084F0200080000000084
:100170004F0200084F0200080000000000000000CD
:100180004F0200084F0200084F02000800F002F87A
:1001900000F041F80AA090E8000C82448344AAF1E0
:1001A0000107DA4501D100F036F8AFF2090EBAE8DE
:1001B0000F0013F0010F18BFFB1A43F0010318479B
:1001C000781D0000981D0000103A24BF78C878C13F
:1001D000FAD8520724BF30C830C144BF04680C604D
:1001E000704700000023002400250026103A28BF95
:1001F00078C1FBD8520728BF30C148BF0B60704799
:10020000642900F01B81002070471FB501F06AFED1
:100210001FBD10B510BD00F0EEF91146FFF7F5FF58
:1002200001F0ECFD00F00CFA03B4FFF7F2FF03BCA1
:1002300000F014FA0948804709480047FEE7FEE746
:10024000FEE7FEE7FEE7FEE7FEE7FEE7FEE7FEE786
:1002500004480549054A064B704700000518000888
:100260008D0100081001002010070020100300205D
:100270001003002053EA020C00F069802DE9F04BD6
:100280004FF00006002B1FBFB3FA83F503FA05F405
:1002900024FA05F65E4012BF1643B2FA82F502FA5E
:1002A00005F4C5F120051EBF22FA05FC44EA0C0442
:1002B000203556EA044C4FEA144418BF641C4FF032
:1002C00000084FF00009904271EB030C39D300296C
:1002D00019BFB1FA81F701FA07F6B0FA80F700FA10
:1002E00007F6C7F120071EBF20FA07FC46EA0C06F6
:1002F0002037B6FBF4FCA7EB0507103F07F01F0BF8
:10030000CBF120060CFA0BFB2CFA06F644BFB346E1
:100310000026202FA4BF5E464FF0000B5BEA060CC0
:1003200008BF4FF0010B19EB0B09ABFB027C48EB4C
:100330000608C01B06FB02CC0BFB03CC71EB0C01C7
:10034000C1E70B46024641464846BDE8F08B13B56F
:100350004FF000004FF00001AFF30080BDE81C40FB
:10036000704710B54C1084EA530404D54042C1F1E3
:10037000000138BF491E1B4204D55242C3F100039D
:1003800038BF5B1EFFF776FF14F0804F04D0404269
:10039000C1F1000138BF491E14F0004F04D0524291
:1003A000C3F1000338BF5B1E10BD00000FB41CB5C5
:1003B000074B06AA7B4469460090059800F003F9B4
:1003C0000020694600F012F91CBC5DF814FB000027
:1003D000350200002DE9F0410E460446002020625F
:1003E0002046E168884730B3252805D0D4E90121AB
:1003F0009047206A401CF2E7E168204600278847C2
:10040000050018D0A5F14100192802D820354FF475
:1004100000673246294620462760FFF7F1FE40B1CB
:10042000012804D0F61D26F007060836D8E7361D49
:10043000D6E72846DAE7206ABDE8F0812DE9F041E9
:100440000646002410687529314616A510D0AFF372
:100450000080002802DA404213A507E031688A07CD
:1004600001D512A502E0490704D511A5012401E038
:10047000AFF3008000210A2206F1240709E0B0FB57
:10048000F2FCB0FBF2F302FB1C003030785418464B
:10049000491C0028F3D123462A463046BDE8F041E6
:1004A00000F032B8000000002D0000002B0000001A
:1004B000200000004FF0000200B513469446964617
:1004C000203922BFA0E80C50A0E80C50B1F1200167
:1004D000BFF4F7AF090728BFA0E80C5048BF0CC015
:1004E0005DF804EB890028BF40F8042B08BF704773
:1004F00048BF20F8022B11F0804F18BF00F8012BE5
:1005000070477047704770472DE9F0470D46994690
:100510009246044600F124080168880604D5E06983
:1005200021F01001216000E00120A84201DD471BFD
:1005300000E00027A1697A1902EB0900081AA061FE
:100540002078C00602D42046AFF30080002608E0E1
:10055000D4E901211AF806009047206A401C761C55
:1005600020624E45F4DB2078C0060AD52046AFF362
:10057000008006E0D4E9012130209047206A401C29
:100580002062381EA7F10107F4DC07E0D4E901215D
:1005900018F805009047206A401C2062281EA5F12B
:1005A0000105F3DC2046AFF300802078000602D579
:1005B0000220BDE8F0870120FBE7000001694A1C2A
:1005C00002610878704700B58FB0CDE90131002194
:1005D000059105497944CDE9031011466846FFF7B6
:1005E000F9FE0FB000BD0000E5FFFFFF0A6802F84A
:1005F000010B0A607047754600F02CF8AE46050006
:100600006946534620F00700854618B020B5FFF72D
:100610001FFEBDE820404FF000064FF000074FF0EE
:1006200000084FF0000B21F00701AC46ACE8C00910
:10063000ACE8C009ACE8C009ACE8C0098D46704719
:1006400010B50446AFF300802046BDE81040FFF728
:10065000EBBD000000487047B000002001491820A1
:10066000ABBEFEE7260002007047FEE7704772B699
:10067000FEE7000070B5044600F0EAF80546601C8D
:1006800002D004480078044400F0E2F8401BA04285
:10069000FAD370BD040000202DE9FC4FDFF880A1E3
:1006A000002301250AF1040B03244FF00F0C0BF17A
:1006B000040EAEE005FA03F632406FD04F68012F0A
:1006C00005D0022F03D0112F01D0122F17D1D0F84F
:1006D00008905F0004FA07F829EA08090097D1F8A2
:1006E0000C8008FA07F848EA0908C0F8088047684B
:1006F000B7430E79C6F300169E403E434660C66877
:100700004FEA430804FA08F7BE4301978F6807FAD7
:1007100008F73743C7604E68022E01D0122E13D15E
:10072000DE0800EB86060096366A5F07FF0E0CFABD
:1007300007F926EA0906D1F8109009FA07F949EAFB
:100740000609009EC6F820900768019EB7430E79FF
:1007500006F0030606FA08F63E4306604E68F60009
:1007600056D5304E376E47F001073766366E23F0A8
:10077000030706F0010600962B4E3E44B146B668CC
:100780009F074FEA17780CFA08F7BE43B0F1904F75
:1007900005D0264FB84204D1012708E038E00027F1
:1007A00005E0234FB84201D1022700E0072707FAEE
:1007B00008F73743C9F80870DAF800605746D1F8EF
:1007C000048096435FEAC83800D516433E60DBF8E4
:1007D00000605F46D1F8048096435FEA883800D510
:1007E00016433E60DEF800607746D1F804809643F9
:1007F0005FEAC82800D516433E60094F0C373E68B3
:10080000D1F8048096435FEA882800D516433E60FD
:100810005B1C0A6832FA03F67FF44CAF00F00AB8AA
:1008200000040140001002400000014000040048A4
:10083000000800481CBCBDE8E08F0069084000D0FB
:10084000012070470AB181617047816270470000E2
:100850000148806870470000040000200248816859
:1008600002781144816070470400002010B5002414
:10087000032000F063F80F2000F008F808B101240D
:1008800001E000F025F8204610BD000070B50E4EC6
:1008900005460024307898B14FF47A71B1FBF0F03E
:1008A0000A490968B1FBF0F000F098FD40B9102D3D
:1008B00006D200222946501E00F020F8756000E0A4
:1008C0000124204670BD000004000020100000201C
:1008D000094808B5016E41F001010166016E01F0A1
:1008E00001010091816D41F080518165806D00F0C2
:1008F0008050009008BD000000100240F0B40E4B84
:100900001B680C46C3F30223C3F10705042D00D96D
:100910000425191D072901D2002300E0DB1E012652
:1009200006FA05F1491E214099409E40761E164068
:100930003143F0BC01F059B90CED00E0064900F07C
:10094000070208684FF6FF03184040EA0220034AF6
:1009500010430860704700000CED00E00000FA054D
:100960001649B0F5007F0868C0F3412009D002287D
:1009700005D0086820F4C06040F480600860002062
:1009800070470128FBD0086820F4C06040F4007074
:1009900008600B483222006850430A4AB0FBF2F06C
:1009A000401C00E0401E4A69520501D50028F9D1DB
:1009B00048694005E3D503207047000000700040FF
:1009C0001000002040420F000248006800F4C060A0
:1009D00070470000007000402DE9F84F04460027E2
:1009E00000889C4D3E46000515D5E06B60B1B0F522
:1009F000000F04D0B0F5400F2BD001270AE0E868C3
:100A000040F48030E86024E00021201D00F0F2FD79
:100A100007001ED03E462068800338D5A86D4FF0F1
:100A20000008C00009D4A86D40F08050A865A86DEA
:100A30004FF0010800F080500090DFF81CA2DAF8B7
:100A4000001041F48071CAF80010FFF701FF8146E1
:100A500010E0D5F88800E16B20F440000843C5F8A9
:100A60008800D8E7FFF7F4FEA0EB0900022801D9BF
:100A7000032704E0DAF80000C005F3D5EFB33E46E3
:100A8000B8F1000F03D0A86D20F08050A865207841
:100A9000C00707D0D5F88800216A20F0030008437A
:100AA000C5F888002078800707D5D5F88800616AE6
:100AB00020F00C000843C5F888002078800607D590
:100AC000D5F88800A16A20F440600843C5F8880082
:100AD0002088800507D5D5F88800616B20F4402078
:100AE0000843C5F888002088400509D5D5F8880056
:100AF000A16B20F44010084300E02EE0C5F8880008
:100B00002078400607D5D5F88800E16A20F44050E7
:100B10000843C5F888002088C00507D5D5F88800A7
:100B2000216B20F440300843C5F8880020884FF03E
:100B3000006780044FF080684ED5D5F88800216C9E
:100B400020F040600843C5F88800206CB8423BD1D3
:100B5000E86840F48010E8603EE0D5F8900010F4BA
:100B6000407014D0216D814211D0D5F89000D5F895
:100B7000901020F4407041F48031C5F89010D5F801
:100B8000901021F48031C5F89010C5F89000C0078E
:100B900011D0FFF75DFE074641F2883907E000BF3C
:100BA000FFF756FEC11B494501D9032668E7D5F872
:100BB00090008007F4D5D5F89000216D20F44070A6
:100BC0000843C5F890005BE7404505D10121201D91
:100BD00000F010FD00B106462068400317D5D5F897
:100BE0008800616C20F040600843C5F88800606CA4
:100BF000B84204D1E86840F48010E86007E040455E
:100C000005D10121201D00F0F5FC00B10646208829
:100C1000400411D5D5F88800A16C20F0405008435D
:100C2000C5F88800A06CB0F1805F05D10221201DBD
:100C300000F0E0FC00B106462088000406D555F817
:100C4000880FE16C20F0804008432860304600F0B7
:100C500005B80000001002400070004018BCBDE85C
:100C6000E08F00002DE9F0470F46050058D0404EB8
:100C7000306800F00700B84209D2306820F0070061
:100C800038433060306800F00700B84248D1287817
:100C9000384CC0072CD06868032811D0022812D025
:100CA000216898B1490500293ADAA16821F00301C9
:100CB0000143A160FFF7CCFD804641F2883910E086
:100CC00021688901EFE721688903ECE78907EAE7F2
:100CD000FFF7BEFDA0EB0801494502D90320BDE89E
:100CE000F087A068696800F00C00B0EB810FEFD1CD
:100CF0002878800705D5A068A96820F0F00008438F
:100D0000A060306800F00700B8420BD9306820F0CE
:100D1000070038433060306800F00700B84201D067
:100D20000120DCE72878400705D5A068E96820F4B1
:100D3000E0600843A0602878000706D5A06829690C
:100D400020F4605040EAC100A06000F03FF8A168C4
:100D5000094AC1F30311515C01F01F01C840074962
:100D6000086007480068BDE8F047FFF78FBD000046
:100D70000020024000100240F01E00081000002079
:100D8000080000200548064900688968054AC1F343
:100D90000221515C01F01F01C84070471000002083
:100DA00000100240301F00080548064900688968A5
:100DB000054AC1F3C221515C01F01F01C8407047D0
:100DC0001000002000100240301F000870B52549B7
:100DD000002318468A68CC6812F00C0204F003065F
:100DE000214C4FEA640509D00C2A05D0042A32D0E0
:100DF000082A00D1284670BD012E10D10B681B07B0
:100E000004D4D1F89430C3F3032302E00B68C3F396
:100E10000313164E56F82330DAB10C2AEBD1C8680A
:100E200000F00300022818D0032818D01846CA681A
:100E3000CB68C2F30212C3F306234343521CB3FB35
:100E4000F2F2C868C0F34160401C4000B2FBF0F011
:100E500070BD184670BD204670BD2046E7E72846A5
:100E6000E5E70000001002400024F400001F000825
:100E70002DE9F84304006FD0FE4DA86800F00C0681
:100E8000E86800F003072078C00664D576B10C2E20
:100E900001D1012F0AD0A069002828687AD040F03B
:100EA00001002860FFF7D4FC80465DE028688007D9
:100EB00002D5A0690028DED0216A2868000703D582
:100EC000286800F0F00004E0D5F89400F02202EA6F
:100ED0001010814216D9084600F022FC00283BD1B0
:100EE000286840F0080028602868216A20F0F00097
:100EF000084328606868E16920F47F4040EA0120E7
:100F0000686016E0286840F0080028602868216AB8
:100F100020F0F000084328606868E16920F47F4011
:100F200040EA0120686026B9206A00F0F9FB002839
:100F3000D5D1FFF74BFFA968CF4AC1F30311515C2C
:100F400001F01F01C840CD490860CD480068FFF797
:100F50009DFC00287ED12EE0CAE000BFFFF778FCA0
:100F6000A0EB0800022876D828688007F6D5286804
:100F700040F0080028602868216A20F0F00008434B
:100F800028606868E16920F47F4040EA01206860D9
:100F900011E0FFE720F001002860FFF759FC8046D0
:100FA00006E000BFFFF754FCA0EB08000228DAD8E7
:100FB00028688007F6D42078C00740D0082E18D0C3
:100FC0000C2E01D1032F14D06068B0F5803F17D0EC
:100FD000B0F5A02F286817D020F48030286028684A
:100FE00020F4802028606068E0B1FFF731FC804683
:100FF00014E02868800322D56068002878D01EE0BD
:10100000286840F48030EDE740F480202860F7E75E
:10101000FFF71EFCA0EB08006428A4D82868800312
:10102000F6D50CE0FFF714FC804605E0FFF710FC56
:10103000A0EB0800642896D828688003F6D42078AE
:1010400080073BD5042E11D00C2E01D1022F0DD0DC
:10105000E06801E0B6E1FFE0002828681ED040F417
:1010600080702860FFF7F4FB07460CE02868400515
:101070000CD5E0680028C1D008E000BFFFF7E8FB0E
:10108000C01B022893D828684005F7D56868217CE2
:1010900020F0F85040EA016068600FE020F48070B2
:1010A0002860FFF7D5FB074605E000BFFFF7D0FB40
:1010B000C01B0228B1D828684005F7D42078000763
:1010C00029D560690028D5F8940012D040F00100BD
:1010D000C5F89400FFF7BCFB074604E0FFF7B8FB38
:1010E000C01B022899D8D5F894008007F6D512E0E5
:1010F0002BE120F00100C5F89400FFF7A9FB07469B
:1011000005E000BFFFF7A4FBC01B022885D8D5F877
:1011100094008007F6D42078400766D5A86D002794
:10112000C00008D4A86D40F08050A865A86D0127C4
:1011300000F08050009053480168C90512D401683E
:10114000814641F480710160FFF782FB804605E033
:10115000FFF77EFBA0EB080002287DD8D9F800003D
:10116000C005F5D5A068012816D00528D5F890004F
:1011700017D020F00100C5F89000D5F8900020F0BD
:10118000040000BFC5F89000A06841F28839C0B1E2
:10119000FFF75EFB80460FE0D5F8900040F00100BD
:1011A000F0E740F00400C5F89000F5E7FFF750FBCA
:1011B000A0EB080149454FD8D5F890008007F5D538
:1011C0000EE0FFF745FB804606E000BFFFF740FB5F
:1011D000A0EB080149453FD8D5F890008007F5D429
:1011E0001FB1A86D20F08050A8652078800628D512
:1011F000606A0028D5F8980012D040F00100C5F8C8
:101200009800FFF725FB074605E000BFFFF720FB2E
:10121000C01B022820D8D5F898008007F6D510E02A
:1012200020F00100C5F89800FFF712FB074604E024
:10123000FFF70EFBC01B02280ED8D5F898008007D8
:10124000F6D4A06AA8B1022824D00C2E7DD028683C
:1012500020F08070286000E0B3E02868000103D42B
:10126000E86820F00300E860E86807490840E860A3
:101270000CE09FE000100240F01E0008100000206B
:101280000800002000700040FFFFEEFEFFF7E0FACC
:10129000044699E0E868E26A00F00301914226D131
:1012A000216B00F070020901103991421FD1626B6D
:1012B00000F4FE41B1EB022F19D194F8382000F070
:1012C0007841B1EBC26F12D1A18F00F4C00249087E
:1012D0004905A1F50011914209D194F8401000F0A0
:1012E000C06049084906A1F1007181424BD00C2E23
:1012F0006FD0286840016CD4286820F08070286086
:10130000FFF7A6FA064604E0FFF7A2FA801B0228C0
:1013100057D828688001F7D4F4E90B016FF00F0269
:1013200002EB01110843218A5204490802EB4151A2
:10133000A26841EA02210843217D4FF07E4249081C
:1013400002EB41610843217B00E042E040EAC160DA
:10135000E968214A11400843E860286840F080703D
:101360002860E86840F08070E860FFF771FA044692
:1013700005E000BFFFF76CFA001B022821D828689F
:101380008001F7D523E02868800120D4286840F048
:1013900080702860E86840F08070E860FFF758FAD5
:1013A000044604E0FFF754FA001B022809D8286815
:1013B0008001F7D50BE000BFFFF74AFA001B0228B7
:1013C00002D90320BDE8F88328688001F4D4002006
:1013D000F8E70120F6E700008C809D0110B5401E63
:1013E000B0F1807F01D3012010BD4FF0E024606197
:1013F0000F21601700F0F9FB0020A0610720206199
:10140000002010BD10B5040002D0A06F10B107E09D
:10141000012010BD002084F87400204600F026F85A
:101420002420A0672068016821F0010101602046A6
:1014300000F098FA0128ECD0606A10B1204600F064
:10144000FFF92068416821F490414160206881687B
:1014500021F02A0181602068016841F001010160EA
:101460002046BDE8104000F04FBA0000F0B59BB038
:101470000446142115A8FFF71DF854216846FFF70C
:1014800019F81C492068884232D102240026684697
:1014900009960094FFF7A0FA08B1FFF7E8F816489C
:1014A000816D41F400318165816D01F400311A9143
:1014B000C16C41F00101C164C06C15A900F00100CC
:1014C0001A90042081E8510003250720CDE9185027
:1014D0004FF090473846FFF7DFF8CDE917654FF436
:1014E00000401995CDE9150415A93846FFF7D4F841
:1014F0001BB0F0BD00440040001002402DE9F8434D
:101500000446806F1F4616460D4620284FD1CDB1A8
:10151000C6B194F87400012849D0012084F8740001
:101520004FF00008C4F880802120A067FFF790F9F1
:10153000A4F850608146A4F85260A068B0F5805FBE
:1015400003D004E00120BDE8F883206928B12E46CD
:101550005FF0000584F8748010E00026FAE780212F
:10156000204600F0EFFAB8B9C6B116F8010B2168B1
:101570000885B4F85200401EA4F85200B4F8520096
:101580004B464FF0000200970028E8D14FF0400191
:10159000204600F0D7FA30B10320D4E735F8020B2B
:1015A000C0F30800E3E72020A0670020CBE702207B
:1015B000C9E7FEE70C4810B50A4901604FF416511F
:1015C0004160002181600C22C160C0E90412816188
:1015D000C16101624162FFF715FF002801D072B6B8
:1015E000FEE710BD0044004014000020FEE7FEE7C7
:1015F000704700002DE9F041444C05468846E068FC
:101600000026810728680DD0E16801F003018142BE
:1016100016D1A8B1E0686968C0F30210401C884286
:101620000ED120E0012804D0022805D0032807D1DC
:1016300008E02168890701E021684905002907DBE6
:1016400001265FE02168890302D421684903F5E798
:10165000E1686A686FF00F0321F0730103EB021277
:1016600011430143E160206820F080602060FFF7B3
:10167000EFF8074605E000BFFFF7EAF8C01B0228B5
:1016800037D820680001F7D4B8F1000F18D0B8F1AE
:10169000010F1DD0287D4FF07E41400801EB4060D6
:1016A000A96840EA01202169194A114008432061D4
:1016B000206840F080602060FFF7CAF807461AE013
:1016C000A868297B000240EAC1602169114AECE761
:1016D000288A1149400801EB4050A96840EA0120DE
:1016E00021690E4AE1E700BFFFF7B2F8C01B0228EC
:1016F00001D9032606E020680001F5D52069A96913
:10170000084320613046BDE8F0810000001002402F
:10171000FF80FFF9FF80FF070000E0FFFF809FFFD1
:10172000F8B51C4D06460024A86DC00002D5FFF791
:101730004BF90DE0A86D40F08050A865A86D00F051
:1017400080500090FFF740F9A96D21F08051A96504
:10175000B0F5007F04D0802E07D94FF003040AE0D3
:10176000802E08D9A02E01D804E001D1022402E085
:10177000702E00D101240848016821F0070121439F
:101780000160006800F00700A04201D00120F8BD10
:101790000020F8BD00100240002002407047FFF713
:1017A0005DB810B596B044216846FEF783FE14215B
:1017B00011A8FEF77FFE4FF40070FFF7D1F808B1D3
:1017C00072B6FEE71020009000240120CDE9060447
:1017D000402008900A946846FFF74AFB08B172B6A9
:1017E000FEE70F20CDE9110413941494002111A8F1
:1017F0001594FFF737FA002801D072B6FEE716B04D
:1018000010BD00000B48016841F4700101600A48F6
:10181000016841F001010160002181600268074B0D
:101820001A4002608214C260026822F480220260C0
:101830008161704788ED00E000100240FFFFF6EA8A
:1018400090F82410C90706D001684A68836A22F418
:1018500000321A434A6090F82410890706D50168BF
:101860004A68C36A22F480321A434A6090F824100E
:10187000490706D501684A68036B22F480221A439F
:101880004A6090F82410090706D501684A68436B3E
:1018900022F400421A434A6090F82410C90606D583
:1018A00001688A68836B22F480521A438A6090F838
:1018B0002410890606D501688A68C36B22F4005299
:1018C0001A438A6090F82410490611D501684A68C5
:1018D000036C22F480121A434A60016CB1F5801F38
:1018E00006D101684A68436C22F4C0021A434A6078
:1018F00090F82410090606D501684A68806C22F425
:10190000002202434A607047F8B500260446C0F83A
:101910008060FEF79DFF0546206800686FF07E47F7
:10192000000708D52B4600224FF4001120460097EF
:1019300000F008F960B92068006840070AD52B4616
:1019400000224FF480012046009700F0FBF808B118
:101950000320F8BD2020A067E067266684F8746045
:101960000020F8BD2DE9F041044600682269A16815
:10197000E669114362690025324311436A4B0268EC
:101980006A4E32400A43026020684168E26821F4EE
:101990004051114341602168A069994201D0226AF7
:1019A00010438A6822F4306202438A6060492768E3
:1019B00060488F420DD1D0F8880010F0030006D0A7
:1019C000012838D0022834D0032821D135E0012164
:1019D0001FE059498F420BD1D0F8880010F00C005D
:1019E00025D0042827D0082823D00C2810D124E0A3
:1019F0009F420DD1D0F8880010F4406017D0B0F5A8
:101A0000806F18D0B0F5006F13D0B0F5406F14D0D0
:101A100010214A4800264FF400429F422DD171B157
:101A2000022912D004290DD0082971D123E0002108
:101A3000EFE70221EDE70421EBE70821E9E7FFF7F3
:101A4000A1F901E0FFF7C2F9E8B3626802EB4201D5
:101A500081425DD8B0EB023F5AD8010E0302500814
:101A6000181871410023FEF705FC354AA0F54071B6
:101A7000914251D94CE01046E7E7E3694FF6EF7722
:101A8000934229D1092943D2DFE801F005080E422B
:101A90000B4242422400FFF775F904E0FFF784F996
:101AA00001E0FFF793F970B14100606801EB50016C
:101AB000B1FBF0F080B2A0F11001B94228D84FF686
:101AC000F071014000E029E0C0F3420001432068CA
:101AD000C16023E01046E7E7092919D2DFE801F0E9
:101AE00005080E180B1818181A00FFF74BF904E038
:101AF000FFF75AF901E0FFF769F978B1616800EB87
:101B00005100B0FBF1F080B2A0F11001B94203D94D
:101B1000012503E01046F1E72168C86066662846A3
:101B2000A666BDE8F081000000800040F369FFEF89
:101B30000038014000100240004400400024F4003E
:101B4000FFFC0F002DE9F0479A4617460E46044663
:101B50004FF000094FF02008089D39E0681C37D08D
:101B6000FEF776FEA0EB0A00A84222D80DB320684B
:101B7000016849072CD5C069C043000528D42168F5
:101B80004FF4006008622068016821F4D0710160A0
:101B90002068816821F001018160C4F87880C4F870
:101BA0007C80C4F8808000BF84F874900320BDE876
:101BB000F0872068016821F4D07101602068816895
:101BC00021F001018160C4F87880C4F87C80EBE7E3
:101BD0002068C06936EA000004D00020B842BDD0B9
:101BE0000020E4E70120F9E7FEE70907090E0028D5
:101BF00004DB00F1E02080F80014704700F00F00D3
:101C000000F1E02080F8141D704780ED040A704751
:101C10000420401E00BF00BF00BF00BF0028F8D155
:101C200070472DE9F04F85B09B4616468A4604461C
:101C30000E9F00F03DF8C4F800A02681C4F804B05F
:101C4000678114216846FEF735FC4FF002094FF01A
:101C500001080025CDF80C900096CDE90185694674
:101C60005046FEF719FD01AA009782E82003694655
:101C70005846FEF711FD218901222068FEF7E2FD9A
:101C80000A20FEF7F7FC218900222068FEF7DAFD22
:101C90000A20FEF7EFFC204600F03DF8204600F059
:101CA0003AF8257505B000F000B830BCBDE8C08F2B
:101CB00010B5044602E000BFFEF7DCFC207D0028E2
:101CC0004FF00100F8D1207510BD2DE9F0410F460D
:101CD0008046FFF7EDFF00252C462E460CE04046DF
:101CE00000F019F801464D1944EBE0744FF005007F
:101CF000FEF7C0FC761CB6B2BE42F0D300263A46D0
:101D0000334628462146FEF72CFBC8F80C0088F81D
:101D10001460BDE8F08170B504460025FEF798FD1B
:101D2000064609E00120FEF7A5FCFEF791FD801BA9
:101D3000962801D9002070BD61896068FEF77DFD9D
:101D40000128EFD00026218901222068FEF77AFDC4
:101D5000FFF75EFF218900222068FEF773FDFFF781
:101D600057FF6D0061896068FEF767FD012800D1AB
:101D70006D1C761C76B2182EE5DB85F400052189F2
:101D800001222068FEF75EFDFFF742FF2189002255
:101D90002068FEF757FDFFF73BFF284670BD2DE991
:101DA000F0410F468046FFF783FF00252C462E4664
:101DB0000CE04046FFF7AFFF01464D1944EBE074DD
:101DC0004FF00500FEF756FC761CB6B2BE42F0D3CB
:101DD00000263A46334628462146FEF7C2FAD8F88E
:101DE0000C1098ED041A401A00EE100A88F81460DE
:101DF000F8EEC00A80EE810ABDE8F0818AB0FEF7F5
:101E000035FDFFF7CEFC142104A8FEF753FB2F4845
:101E1000C16C41F00101C164C06C4FF0904500F00D
:101E200001000090002220212846FEF70BFD00242F
:101E30001020CDE9040404A928460694FEF72CFCE2
:101E4000202601200496CDE9050404A9284607941C
:101E5000FEF722FCFFF7AEFB2B46102219461C486A
:101E60000096FFF7DEFE0A211948FFF72EFF9FEDCF
:101E7000190A1748FFF7C9FE17A0184C00684FF45D
:101E8000FA764FF0FF3509903046FEF7F3FB0A2152
:101E90000F48FFF784FFBDEEC00A11A101A810EEA4
:101EA000102AA2F5B052B73A2260FEF77FFA08482E
:101EB0002B460A2201A98438FFF720FB04482B4651
:101EC000022209A98438FFF719FBDDE70010024060
:101ED00098000020008012430D0A0000000000203E
:101EE000256400004FF04070E1EE100A70470000DA
:101EF00000000000000000000102030406070809BA
:101F0000A0860100400D0300801A060000350C0079
:101F100040420F0080841E0000093D0000127A003C
:101F20000024F40000366E010048E801006CDC0279
:101F30000000000001020304581F000800000020F8
:101F400014000000C80100086C1F000814000020E5
:101F5000FC060000E4010008000000000100000091
:0C1F6000100000000000000000093D001F
:040000050800018D61
:00000001FF
