:020000040800F2
:10000000983500202D0300089F3B0008CF360008DC
:100010009D3B000887160008554A000800000000B4
:100020000000000000000000000000004D02000879
:100030008916000800000000A9020008FD3F000822
:100040004703000847030008470300084703000868
:100050004703000847030008470300084703000858
:100060004703000847030008470300084703000848
:100070004703000847030008470300084703000838
:100080004703000847030008470300084703000828
:100090004703000847030008470300084703000818
:1000A000470300089942000847030008E54000089C
:1000B000470300080000000000000000470300089C
:1000C000470300080000000000000000470300088C
:1000D000000000004703000847030008000000007C
:1000E000470300084703000800000000000000006C
:1000F0000000000000000000000000000000000000
:10010000000000000000000000000000470300089D
:10011000000000000000000047030008470300083B
:100120004703000847030008470300084703000887
:10013000470300080000000000000000000000006D
:100140004703000847030008470300084703000867
:100150004703000847030008470300084703000857
:100160004703000847030008470300080000000099
:1001700047030008470300080000000000000000DB
:1001800047030008470300084703000800F002F88F
:1001900000F04CF80AA090E8000C82448344AAF1D5
:1001A0000107DA4501D100F041F8AFF2090EBAE8D3
:1001B0000F0013F0010F18BFFB1A43F0010318479B
:1001C000FC6500001C660000103A24BF78C878C1A6
:1001D000FAD8520724BF30C830C144BF04680C604D
:1001E000704700000023002400250026103A28BF95
:1001F00078C1FBD8520728BF30C148BF0B60704799
:10020000662906F0C481642900F0708100207047DF
:100210001FB506F0B7F900F0F9FC0400002000213A
:1002200006F088F8E0601FBD10B510BD00F0EEFDCF
:100230001146FFF7EDFF04F037FC00F00CFE03B4AD
:10024000FFF7F2FF03BC00F04FFE00002C4B1968D3
:10025000086800F05AB880F30988BFF36F8F4FF039
:10026000000080F311887047000000000848006813
:10027000006880F308884FF0000080F3148862B6AD
:1002800061B6BFF34F8FBFF36F8F00DF00BF00BFBA
:1002900008ED00E0DFF80C00016841F47001016036
:1002A000704700BF88ED00E0EFF30980BFF36F8F68
:1002B000134B1A681EF0100F08BF20ED108A20E9BA
:1002C000F04F106009B44FF0500080F31188BFF375
:1002D0004F8FBFF36F8F05F0FBFA4FF0000080F3F4
:1002E000118809BC1968086800F014B81EF0100FD6
:1002F00008BF00F014B880F30988BFF36F8F704710
:1003000058000020EFF30580704730C8B0E8C04FB8
:10031000FFF7A1BF30C8B0E8C04FFFF7E7BFB0ECB0
:10032000088AB0EC08CAFFF7E6BF0000094880471A
:1003300009480047FEE7FEE7FEE7FEE7FEE7FEE7C7
:10034000FEE7FEE7FEE7FEE704480549054A064BDF
:1003500070470000A94000088D010008982F002078
:1003600098350020983100209831002053EA020C83
:1003700000F069802DE9F04B4FF00006002B1FBF05
:10038000B3FA83F503FA05F424FA05F65E4012BFCA
:100390001643B2FA82F502FA05F4C5F120051EBF34
:1003A00022FA05FC44EA0C04203556EA044C4FEAD4
:1003B000144418BF641C4FF000084FF0000990422D
:1003C00071EB030C39D3002919BFB1FA81F701FA97
:1003D00007F6B0FA80F700FA07F6C7F120071EBF4C
:1003E00020FA07FC46EA0C062037B6FBF4FCA7EB24
:1003F0000507103F07F01F0BCBF120060CFA0BFB93
:100400002CFA06F644BFB3460026202FA4BF5E4652
:100410004FF0000B5BEA060C08BF4FF0010B19EB25
:100420000B09ABFB027C48EB0608C01B06FB02CCA9
:100430000BFB03CC71EB0C01C1E70B4602464146B6
:100440004846BDE8F08B13B54FF000004FF00001B7
:10045000AFF30080BDE81C40704700000FB41CB52E
:10046000074B06AA7B4469460090059800F061FBA3
:100470000020694600F070FB1CBC5DF814FB000016
:10048000F10600002DE9F0410E46044600202062EE
:100490002046E168884730B3252805D0D4E90121FA
:1004A0009047206A401CF2E7E16820460027884711
:1004B000050018D0A5F14100192802D820354FF4C5
:1004C00000673246294620462760FFF799FE40B173
:1004D000012804D0F61D26F007060836D8E7361D99
:1004E000D6E72846DAE7206ABDE8F0812DE9F04139
:1004F0000646002410687529314616A510D0AFF3C2
:100500000080002802DA404213A507E031688A071C
:1005100001D512A502E0490704D511A5012401E087
:10052000AFF3008000210A2206F1240709E0B0FBA6
:10053000F2FCB0FBF2F302FB1C003030785418469A
:10054000491C0028F3D123462A463046BDE8F04135
:1005500000F07FB8000000002D0000002B0000001C
:1005600020000000032A40F2308010F0030C00F05D
:10057000158011F8013BBCF1020F624498BF11F8DD
:1005800001CB00F8013B38BF11F8013BA2F1040296
:1005900098BF00F801CB38BF00F8013B11F003030E
:1005A00000F0DF82083AC0F0088051F8043B083AB6
:1005B00051F804CBA0E80810F5E7121D5CBF51F814
:1005C000043B40F8043BAFF30080D20724BF11F88E
:1005D000013B11F801CB48BF11F8012B24BF00F8F3
:1005E000013B00F801CB48BF00F8012B704702F037
:1005F000FF0343EA032242EA024200F0E6BA4FF068
:10060000000200B5134694469646203922BFA0E862
:100610000C50A0E80C50B1F12001BFF4F7AF09076E
:1006200028BFA0E80C5048BF0CC05DF804EB89005F
:1006300028BF40F8042B08BF704748BF20F8022BA2
:1006400011F0804F18BF00F8012B704770477047BA
:1006500070472DE9F0470D4699469246044600F151
:1006600024080168880604D5E06921F010012160A2
:1006700000E00120A84201DD471B00E00027A1693E
:100680007A1902EB0900081AA0612078C00602D48A
:100690002046AFF30080002608E0D4E901211AF8D3
:1006A00006009047206A401C761C20624E45F4DB11
:1006B0002078C0060AD52046AFF3008006E0D4E9D2
:1006C000012130209047206A401C2062381EA7F18B
:1006D0000107F4DC07E0D4E9012118F80500904790
:1006E000206A401C2062281EA5F10105F3DC20468B
:1006F000AFF300802078000602D50220BDE8F08725
:100700000120FBE770472DE9FF4F0C461E464FF0D6
:10071000FF378BB0D2E90001DDF860800A908A468D
:10072000C1F30A5505B93D46002108464FF00000C7
:10073000BAF1000F00F4400005DA00EB80004FF43E
:10074000400101EA50004FEA9059B9F1010F00DD74
:10075000B9460A9850EA4A000ED044F61050A5F265
:10076000FF3545432F14B8F1000F1ED07542291EE6
:100770001EDDC9F100021CE0B8F1010F4FF00000CE
:1007800001D0302103E0F24305E02154401CB04287
:10079000FBDB30460022002121540B99C1F8088070
:1007A000C1E900200FB000F0BCB9BD1B6D1CDEE735
:1007B0004A4600DA694206A800F0B2FA06AB93E8AE
:1007C000070003AB83E8070050460A9900F093FB4B
:1007D0008DE80700A0F500501F3800900398002D09
:1007E0000ADD42F21F014A460844002303A9039090
:1007F000684600F0FCFD09E0A0F500504A461F38AD
:10080000002303A90390684600F006FE8DE8070068
:100810000004000C03D04FF0FF30410800E0104608
:10082000B8F1000F03D00022009215461EE0751E9D
:1008300005D400F0EFF9303262556D1EF9D5B3469C
:100840000122084302D000227F1C04E020783028D7
:1008500001D100227F1E002A099784D01DE0112DAE
:1008600007DA00F0D7F9303262556D1C50EA010208
:10087000F5D1084302D00098C8B10EE00021681EEF
:1008800005E0235C625C63542254401E491C814293
:10089000F7DBAB46A81B401E0990002004F80B00B4
:1008A0000B98099AC0F80880C0E9002B7AE7112656
:1008B0004FF0000857E72DE9F04F88460446D21D57
:1008C00022F0070191B0D1E90001CDE90A0104F05D
:1008D000C2F802460B98C00F01D02D2007E0206817
:1008E000810701D52B2002E0202101EAC000032A64
:1008F000099001D0072A05DB03464146204600F057
:10090000CFF90BE12078800601D5E06900E00620F0
:10091000B8F1650F814606D0B8F1660F18D0B8F16E
:10092000670F70D131E00020B9F1110F009001DBA9
:10093000112301E009F101030AAA01A90CA8FFF79C
:10094000E2FEDDE90C70002609F10105834647E06F
:1009500001204B4600904FF000470AAA01A90CA8BD
:10096000FFF7D1FEDDE90DB00C995D46002610B908
:1009700009F101000D18B9EB050003D4C0F1FF36F1
:1009800009F10105A5EB09002BE0B9F1010F01DA2E
:100990004FF001090020B9F1110F0090484601DD28
:1009A000112300E003460AAA01A90CA8FFF7ABFE39
:1009B000DDE90C704D4600268346207800070AD4F6
:1009C000AB4500DA5D4601A8012D04DD411911F89F
:1009D000011C302907D04F4502DA17F1040F04DA61
:1009E000012082460FE06D1EEEE7002F02DCED1BBA
:1009F0003E4403E0781CA84200DD7D1CB81B00F1DA
:100A0000010A4FF000472078000703D4AA4501DB14
:100A10004FF0FF3A0021B7F1004F0DF143088DF878
:100A2000431024D002202B23002F01DA7F422D23F4
:100A30000A21021EA0F1010000DC5FB197FBF1FC6E
:100A400097FBF1F201FB1C7C17460CF1300C08F807
:100A500001CDEEE7A8F1010003702188090501D559
:100A6000452100E06521A0F1010800F8011C09986A
:100A70000FA9A1EB0807FF1D00B10120411901EBEF
:100A8000EA70A1693844081A401EA0612078C006A7
:100A900002D42046AFF30080099828B1D4E901219F
:100AA0009047206A401C20622078C00622D520464C
:100AB000AFF300801EE0002E04DBB34502DD01A889
:100AC000805D00E03020D4E901219047206A401C7D
:100AD0002062761CAAF101005FEA000A0AD100F048
:100AE00095F8C0680168405CD4E901219047206A0C
:100AF000401C2062281EA5F10105DCDC07E0D4E9DA
:100B0000012118F8010B9047206A401C2062381E12
:100B1000A7F10107F3DC2046AFF30080032011B0FA
:100B200041E630BCBDE8C08F01694A1C026108780B
:100B3000704700B58FB0CDE901310021059105491D
:100B40007944CDE9031011466846FFF79BFC0FB0CE
:100B500000BD0000E5FFFFFF0A6802F8010B0A6014
:100B6000704710B5203AC0F00B80B1E81850203A19
:100B7000A0E81850B1E81850A0E81850BFF4F5AF3D
:100B80005FEA027C24BFB1E81850A0E8185044BFC7
:100B900018C918C0BDE810405FEA827C24BF51F834
:100BA000043B40F8043B08BF7047D20728BF31F828
:100BB000023B48BF11F8012B28BF20F8023B48BF79
:100BC00000F8012B70474FF000020429C0F012809A
:100BD00010F0030C3FF415ADCCF1040CBCF1020F86
:100BE00018BF00F8012BA8BF20F8022BA1EB0C01C5
:100BF000FFF707BD5FEAC17C24BF00F8012B00F8B6
:100C0000012B48BF00F8012B7047000000487047D7
:100C1000582F002030B5B0F10A024FEA900E71F162
:100C200000034EEA817EB0EB0E0061EB91014FEACA
:100C3000101E4EEA017E10EB0E0041EB11114FEA3F
:100C4000102E4EEA016E10EB0E0041EB11214FEA1F
:100C5000104E4EEA014E10EB0E0041EB11414018D0
:100C600041F100014FEAD00040EA41704FEAD10162
:100C700010EB80054FEA810444EA907444EB0104D0
:100C80006D1944EB0404521BA3414FF0000348BF0D
:100C90000A3200D530BD401C41F1000130BD0000DA
:100CA0002DE9F0411F46044603260168072A01F496
:100CB000006004DB08B116A505E016A503E008B145
:100CC00015A500E015A521F010002060A069C01E48
:100CD000A0610FB1401EA0612046AFF300804FB16C
:100CE000D4E9012138469047206A401C2062C01C8C
:100CF000206206E0206AFAE7D4E9012115F8010B29
:100D00009047761EF8D22046AFF30080BDE8F08110
:100D10004E414E006E616E00494E4600696E66009F
:100D20002DE9F047814616468AB0354878440DC80B
:100D30008DE80D0032487844801C03AC0DC884E86F
:100D40000D0041F69B300844372190FBF1F290FBF7
:100D5000F1F5A5F1800501FB12041B3C02D56442AC
:100D6000012000E00020DFF898A080460027FA4428
:100D7000AAF1BE0A0EE0E0070AD03246684607EB49
:100D8000470101230AEB810100F046FB8DE80700D3
:100D900064107F1C002CEED1194F7F44AE3F19E048
:100DA000E80715D007EB04100DF1180A90E80E00C3
:100DB0008AE80E00C068F04201D1981908903246C6
:100DC000012306A903A800F027FB03AB83E8070073
:100DD0006D10641C002DE3D14FF0010332466946CB
:100DE000B8F1000F03A802D000F001FB01E000F011
:100DF00013FBC9E90001C9F808200AB0BDE8F08773
:100E0000245A000000487047382F00207546FFF72D
:100E1000F9FFAE4605006946534620F007008546B7
:100E200018B020B5FFF790FABDE820404FF000065B
:100E30004FF000074FF000084FF0000B21F00701C2
:100E4000AC46ACE8C009ACE8C009ACE8C009ACE805
:100E5000C0098D46704710B50446AFF300802046A8
:100E6000BDE81040FFF7EBB94FF0013C50F8042B00
:100E700051F8043B9A4221D1A2EB0C03934313EAAD
:100E8000CC1317D150F8042B51F8043B9A4215D1DA
:100E9000A2EB0C03934313EACC130BD150F8042BB1
:100EA00051F8043B9A4209D1A2EB0C03934313EA95
:100EB000CC13DBD04FF00000704700BFD01A01BA4E
:100EC000B1FA81F101F0180122FA01F0CB40C1F131
:100ED0002001DBB2C0B2C01A2CFA01F3D11A91433F
:100EE00011EAC311E6D1704701491820ABBEFEE7F5
:100EF0002600020070475FEA400C08BF91F0000F27
:100F00004FEA8C234FEAC12243EA51514FEA1C5069
:100F100018BF00F5F0404FEA300018BF41F0004123
:100F20005FEA6C5C00F02980BCF1FF3F08BF40F035
:100F300080407047130C06BF12044FF0100C4FF0A6
:100F4000000C130E04BF12020CF1080C130F04BFA7
:100F500012010CF1040C930F04BF92000CF1020C6F
:100F6000D30F04BF52000CF1010C11464FF00002E8
:100F7000A0F11F00A0EB0C00704711F0004F08BF5C
:100F8000704731F000413FF4D5AF0B0C06BF0904A8
:100F90004FF0100C4FF0000C0B0E04BF09020CF1C7
:100FA000080C0B0F04BF09010CF1040C8B0F04BFDC
:100FB00089000CF1020CCB0F04BF49000CF1010CAD
:100FC000CCF12003A0EB0C0022FA03F302FA0CF29E
:100FD00041EA030100F10100704720F07F4C80EAF4
:100FE000030023F07F47ACEB070303F57C5300F0CD
:100FF000004003F1FF032DE980494FEA154B09B486
:101000004FEA144325EA0B4E24EA03480FF2042664
:1010100006EB132749083E785FEA320203FB0667B6
:10102000C7F5000707FB06F64FEA54374FEAD646E6
:1010300006F1020607FB066CCCF1005C4FEA1C4788
:101040002CEA074C07FB06F40CFB06F504EB1546EF
:101050004FEA961634BF00204FF000404FEAD137D8
:1010600006FB07FC4FEA1C4C0CFB0BF7D21B03FBE7
:101070000CF761EB07010CFB0EF7B0EB074072EBCE
:1010800017420CFB08F734BFA2EB0742B2EB074252
:1010900061EB17414FEA0C444FEA910706FB07FC4E
:1010A0004FEA1C4C0CFB0BF7B0EBC74072EB57320E
:1010B00003FB0CF734BFA2EBC742B2EBC74261EBB4
:1010C00057310CFB0EF7B0EBC70072EB57720CFBFD
:1010D00008F734BFA2EBC702B2EBC70261EB57714E
:1010E000039F4FEA816141EA921104EBCC044FEA7D
:1010F000D1374FEA826206FB07FC42EA90124FEAC0
:1011000080604FEA1C4C0CFB0BF7D21B03FB0CF767
:1011100061EB07010CFB0EF7B0EB074072EB1742D7
:101120000CFB08F734BFA2EB0742B2EB074261EBBE
:1011300017414FEA8C554FEA910704EB9C2406FBBC
:1011400007FC4FEA1C4C0CFB0BF7B0EBC74072EBF3
:10115000573203FB0CF734BFA2EBC742B2EBC742D6
:1011600061EB57310CFB0EF7B0EBC70072EB577217
:101170000CFB08F734BFA2EBC702B2EBC70261EB6E
:10118000577115EB4C254FEA816141EA92114FEA04
:1011900082624FEAD13742EA901206FB07FC44F123
:1011A00000044FEA80604FEA1C4C0CFB0BF7D21B8B
:1011B00003FB0CF761EB07010CFB0EF7B0EB0740EC
:1011C00072EB17420CFB08F734BFA2EB0742B2EBFD
:1011D000074261EB174115EB1C154FEA813141EADB
:1011E00092414FEA823242EA90424FEA80304FEA1F
:1011F0000C7644F1000448EA03434EEA0B484FF0F2
:10120000000EB2EB080C71EB030724BF62463946AF
:101210004EEB0E0E4FF0000B0018524149414BEBC4
:101220000B0BB2EB080C71EB03077BF1000B24BF37
:10123000624639464EEB0E0E4FF0000B001852413D
:1012400049414BEB0B0BB2EB080C71EB03077BF145
:10125000000B24BF624639464EEB0E0E51EA0207E0
:1012600018BF46F0010616EB0E7655F1000254F158
:10127000000103D5BDE88901BDE80088BDE889010A
:10128000BDE80048B619524141EB0101A3F1010349
:10129000704780807F7E7D7C7B7A797877767675E3
:1012A0007473727171706F6E6E6D6C6C6B6A6A695B
:1012B0006868676666656464636362616160605FF5
:1012C0005F5E5E5D5D5C5C5B5B5A5A59595858576E
:1012D00057565655555554545353525252515150D6
:1012E00050504F4F4F4E4E4D4D4D4C4C4C4B4B4B29
:1012F0004A4A4A494949484848474747474646466F
:1013000045454544444444434343434242424241A9
:101310004141002B9C4630D477002BD01CB54FEABE
:10132000370703B44FF010004FF01001BAF1000F6F
:1013300006D0BCF1000FDCBF40F0080040F008010F
:101340004FF000000FBCBDE810400BF1010BBBF1EA
:10135000010F08BF5FEA170722BF12F1010211F166
:1013600001014FF0004143F1000300F0004043EA67
:1013700000007047F9D35708D0E746EA064613F154
:10138000400F4FEA16461FDD13F1200FDFBF164353
:101390000A46002120335B42BED0C3F1200746EA53
:1013A000064602FA07F74FEA164646EA0706C3F171
:1013B000200722FA03F201FA07F721FA03F14FF0AE
:1013C000000342EA0702A7E746EA020646EA0646A3
:1013D0004FEA164646EA0106BCBF46EA0646360C08
:1013E0004FF000034FF000024FF0000194E72DE9A9
:1013F000804C9A46934670B491E8380007C831EAA9
:10140000400C48BF34EA430C03D5FFF7E6FDFFF775
:1014100080FFF0BCBDE8008C2DE9804C9A469346D5
:1014200070B491E8380007C810F0804F08BF13F07F
:10143000804F03D100F005F8FFF76BFFF0BCBDE86B
:10144000008C20F07F4780EA030023F07F4C07EBFD
:101450000C03A3F57C5300F00040A3F1FE0392F0CF
:10146000000F00F0B38095F0000F00F077802DE9B9
:1014700001494FEA11404FEA144621EA004800FBB7
:1014800006FC24EA064708FB06F607FB08F800FB03
:1014900007F718EB06484CEB164C4FEA124B18EBCB
:1014A00007484FEA15464CEB174022EA0B4E0BFB60
:1014B00006FC25EA06470EFB06F607FB0EFE0BFBB5
:1014C00007F71EEB064E4CEB164C4FF000061EEBDA
:1014D000074E4CEB174B18EB0B0840F1000018EBD4
:1014E0000E0B58EB000840F100008F1A4FF000017E
:1014F0003CBFC943661B14BFB5EB040C00213CBFC5
:10150000C943F61B4FEA17444EEA8E0E27EA0445FC
:101510004FEA1C4704FB07622CEA074C05FB07F760
:101520000CFB05F604FB0CFC16EB074642EB1742DE
:1015300016EB0C4642EB1C421BEB060658EB020274
:10154000414146EA9E0601D5BDE80189B6195241DE
:1015500041EB0101A3F10103BDE801894FEA144504
:101560004FEA114724EA054621EA074C05FB07F438
:1015700006FB07F70CFB06F105FB0CFC11EB074122
:1015800044EB17444FEA124711EB0C4144EB1C4467
:1015900022EA074C05FB07F206FB07F70CFB06F6F1
:1015A00005FB0CFC16EB074642EB174216EB0C460C
:1015B00042EB1C456A1854F1000148BF7047B61948
:1015C000524141EB0101A3F10103704795F0000F77
:1015D00037D04FEA11424FEA144721EA024624EA83
:1015E000074C02FB07F106FB07F70CFB06F402FBB6
:1015F0000CFC14EB074441EB17414FEA154714EB81
:101600000C4441EB1C4125EA074C02FB07F506FBA5
:1016100007F70CFB06F602FB0CFC16EB074645EB46
:10162000174516EB0C4645EB1C42121951F100010F
:1016300048BF7047B619524141EB0101A3F10103C4
:1016400070474FEA14454FEA114724EA054621EA5C
:10165000074C05FB07F106FB07F70CFB06F24FF002
:10166000000605FB0CFC12EB074241EB174112EBA5
:101670000C4251EB1C4148BF7047921841EB0101ED
:10168000A3F101037047FEE7704772B6FEE7000062
:1016900086B000211C4801F085FE1B4C0520216806
:1016A0004863851F4FF47A784FF448774FF4FA79FE
:1016B00016A10DF10C0C07C98DE8070016A205262E
:1016C00007CA8CE8070010482B4632466946D030DE
:1016D00001F0A2FF206886624646404600F022F8EC
:1016E00009482B46052203A9D03001F095FF206858
:1016F0008762304600F016F8484600F013F80120E3
:1017000003F02AFAD4E70000700100204D4F544F37
:1017100052206F70656E00004D4F544F5220636C25
:101720006F73650070B5044600F0ECF80546601C68
:1017300002D004480078044400F0E4F8401BA042C2
:10174000FAD370BD480000202DE9FC4FDFF880A1DE
:10175000002301250AF1040B03244FF00F0C0BF1B9
:10176000040EAEE005FA03F632406FD04F68012F49
:1017700005D0022F03D0112F01D0122F17D1D0F88E
:1017800008905F0004FA07F829EA08090097D1F8E1
:101790000C8008FA07F848EA0908C0F8088047688A
:1017A000B7430E79C6F300169E403E434660C668B6
:1017B0004FEA430804FA08F7BE4301978F6807FA17
:1017C00008F73743C7604E68022E01D0122E13D19E
:1017D000DE0800EB86060096366A5F07FF0E0CFAFD
:1017E00007F926EA0906D1F8109009FA07F949EA3B
:1017F0000609009EC6F820900768019EB7430E793F
:1018000006F0030606FA08F63E4306604E68F60048
:1018100056D5304E376E47F001073766366E23F0E7
:10182000030706F0010600962B4E3E44B146B6680B
:101830009F074FEA17780CFA08F7BE43B0F1904FB4
:1018400005D0264FB84204D1012708E038E0002730
:1018500005E0234FB84201D1022700E0072707FA2D
:1018600008F73743C9F80870DAF800605746D1F82E
:10187000048096435FEAC83800D516433E60DBF823
:1018800000605F46D1F8048096435FEA883800D54F
:1018900016433E60DEF800607746D1F80480964338
:1018A0005FEAC82800D516433E60094F0C373E68F2
:1018B000D1F8048096435FEA882800D516433E603D
:1018C0005B1C0A6832FA03F67FF44CAF00F00AB8EA
:1018D00000040140001002400000014000040048E4
:1018E000000800481CBCBDE8E08F426921EA020301
:1018F0000A4043EA0241816170470AB18161704741
:1019000081627047014880687047000048000020ED
:1019100090F84120202A24D190F84020012A20D09C
:10192000012280F84020242280F8412002681368B8
:1019300023F0010313600268136823F480531360DB
:10194000026813680B43136001680A6842F00102E1
:101950000A60202180F84110002180F840100846DC
:1019600070470220704790F84120202A22D190F839
:101970004020012A1ED0012280F84020242280F835
:1019800041200268136823F00103136002681368A2
:1019900023F4706343EA0121116001680A6842F090
:1019A00001020A60202180F84110002180F84010D7
:1019B000084670470220704770B5040004D094F8C0
:1019C0004100002510B106E0012070BD84F84050B0
:1019D000204600F00FFA242084F8410020680168B6
:1019E00021F0010101606068216820F070600861E9
:1019F0002068816821F400418160E0680128A068C6
:101A000007D040F4044021688860E068022803D0D1
:101A100006E040F40040F6E721684FF400604860BB
:101A200020684168114A114341602068C16821F46F
:101A30000041C160D4E904010843A16940EA0120E2
:101A40002168C860D4E9070108432168086020685C
:101A5000016841F0010101606564202084F84100C3
:101A6000256384F84250002070BD00000080000211
:101A70002DE9FC4700260446019690F841001F46D8
:101A80009246894620287ED120688069C0430004A0
:101A900079D594F84000012875D0012084F84000E1
:101AA000242084F8410066644FF02008E068012893
:101AB00009D029F4544040F4205021684860FFF7D1
:101AC00021FF05460DE0314949EA0100304908404F
:101AD000F3E7781C05D0FFF715FF401BB84219D873
:101AE000C7B1216888698969C0F34010C1F300114A
:101AF0000843EED0206880693B46C043C0064FF0E3
:101B000000024FF020012046009517D501F04AFE53
:101B100068BB09E084F8418054F8440F40F020008D
:101B200044F80409267022E02168C1F81C8084F87A
:101B3000418084F84060002000F02CB801F032FEB3
:101B4000A8B921681020C8612168C1F81C800198DB
:101B5000504512D12068416841F4804141603B46C4
:101B6000002220212046009501F01CFE10B101202A
:101B7000E2E708E02168C1F81C800198401C019050
:101B8000504593D3C6E70220D6E7000000200002AC
:101B9000FF2300020CBCBDE8F08700002DE9F84FE0
:101BA000044690F84100DDF828A01F4690468B4679
:101BB00020287ED194F8400001287AD0012084F8B2
:101BC0004000FFF79FFE0646012200901923D10333
:101BD000204601F0E7FDE0BB222084F84100102000
:101BE00084F8420000256564C4F824806785656335
:101BF000618D3148FF274FF080784FF00079FF2941
:101C000003D927853A46009039E0618D21850090FF
:101C10003AE05946204601F0AFFD13E001F0EEFD39
:101C2000B8B92068406A616A0870606A401C6062E6
:101C3000208D401E80B22085618D491E6185618D99
:101C400001B168B1608D3246002851462046E5D189
:101C500000E002E001F014FED0B1012000F030B845
:101C60005346002280212046009601F09BFD00286B
:101C7000F3D1608DFF2804D927853A460095434665
:101C8000C7E7608D2085009594F828204B46C0E773
:101C900021682020C86121684A68084B1A404A60C0
:101CA00084F8410084F8425084F840500020D5E781
:101CB000FFE70220D2E700000024008000E800FED9
:101CC00018BCBDE8E08F00002DE9F84F044690F8FD
:101CD0004100DDF828A01F4690468B4620287ED183
:101CE00094F8400001287AD0012084F84000FFF7E2
:101CF00009FE0646012200901923D103204601F077
:101D000051FDE0BB212084F84100102084F84200FE
:101D100000256564C4F8248067856563618D31485A
:101D2000FF274FF080784FF00079FF2903D92785EE
:101D30003A46009039E0618D218500903AE059469D
:101D4000204601F019FD13E001F0C0FDB8B9606A4A
:101D5000216800788862606A401C6062608D401E65
:101D60006085208D401E80B22085618D01B168B1F3
:101D7000608D3246002851462046E5D100E002E061
:101D800001F07EFDD0B1012000F030B853460022B2
:101D900080212046009601F005FD0028F3D1608DDA
:101DA000FF2804D927853A4600954346C7E7608D4A
:101DB0002085009594F828204B46C0E72168202014
:101DC000C86121684A68084B1A404A6084F841009B
:101DD00084F8425084F840500020D5E7FFE7022005
:101DE000D2E700000020008000E800FE18BCBDE83B
:101DF000E08F00002DE9F0419CB00446142115A8A5
:101E0000FEF7FDFB54216846FEF7F9FB21492068E7
:101E100088423BD18015002500900C95684600F063
:101E200037F908B1FFF731FC1B4CE06C40F00100C2
:101E3000E064E06C00F001001A90E06C40F00200F9
:101E4000E064E06C4FF0120800F002001A9080206D
:101E5000CDE9150817AA0326042782E8E00015A992
:101E60004FF09040FFF770FC1020CDE9150817AA3D
:101E700015A982E8E0000948FFF766FCA06D40F470
:101E80000000A065A06D00F400001A901CB0BDE831
:101E9000F0810000005C0040001002400004004897
:101EA0000248816802781144816070474800002030
:101EB00010B50024032000F08DF80F2000F008F882
:101EC00008B1012401E000F03DF8204610BD0000FB
:101ED00000B5014687B00022192000F05BF81920F8
:101EE00000F04AF81348016E41F400310166006EBB
:101EF00005A900F400300690684600F09FFA00F053
:101F0000CFFA0D490D4AB0FBF1F10D48491E0260B0
:101F1000416040F2E7320021C0E90321816000F016
:101F200013FE10B1012007B000BD054800F0B4FE5B
:101F3000F9E700000010024040420F000044014059
:101F4000D80200200B4882B0016E41F00101016609
:101F5000016E01F001010091816D41F080518165B8
:101F6000806D002200F0805000900F21901E02B082
:101F700000F010B800100240002809DB00F01F023A
:101F8000012191404009800000F1E020C0F80011DB
:101F900070470000F0B40E4B1B680C46C3F30223DD
:101FA000C3F10705042D00D90425191D072901D205
:101FB000002300E0DB1E012606FA05F1491E214040
:101FC00099409E40761E16403143F0BC02F05BBD46
:101FD0000CED00E0064900F0070208684FF6FF0329
:101FE000184040EA0220034A10430860704700008E
:101FF0000CED00E00000FA051649B0F5007F086816
:10200000C0F3412009D0022805D0086820F4C06040
:1020100040F480600860002070470128FBD0086809
:1020200020F4C06040F4007008600B483222006861
:1020300050430A4AB0FBF2F0401C00E0401E4A69DF
:10204000520501D50028F9D148694005E3D50320A0
:1020500070470000007000405400002040420F0014
:102060000248006800F4C060704700000070004043
:102070000248016841F480710160704700700040BF
:102080000248016841F004010160704700100240FD
:102090002DE9F84F0446002700889C4D3E46000578
:1020A00015D5E06B60B1B0F5000F04D0B0F5400F6E
:1020B0002BD001270AE0E86840F48030E86024E093
:1020C0000021201D01F06CFD07001ED03E46206857
:1020D000800338D5A86D4FF00008C00009D4A86D62
:1020E00040F08050A865A86D4FF0010800F08050C6
:1020F0000090DFF81CA2DAF8001041F48071CAF8F1
:102100000010FFF7FFFB814610E0D5F88800E16B77
:1021100020F440000843C5F88800D8E7FFF7F2FB39
:10212000A0EB0900022801D9032704E0DAF8000037
:10213000C005F3D5EFB33E46B8F1000F03D0A86D4C
:1021400020F08050A8652078C00707D0D5F8880017
:10215000216A20F003000843C5F888002078800732
:1021600007D5D5F88800616A20F00C000843C5F84F
:1021700088002078800607D5D5F88800A16A20F469
:1021800040600843C5F888002088800507D5D5F849
:102190008800616B20F440200843C5F8880020883F
:1021A000400509D5D5F88800A16B20F440100843FC
:1021B00000E02EE0C5F888002078400607D5D5F865
:1021C0008800E16A20F440500843C5F88800208860
:1021D000C00507D5D5F88800216B20F440300843AE
:1021E000C5F8880020884FF0006780044FF08068B1
:1021F0004ED5D5F88800216C20F040600843C5F822
:102200008800206CB8423BD1E86840F48010E86058
:102210003EE0D5F8900010F4407014D0216D81425A
:1022200011D0D5F89000D5F8901020F4407041F40A
:102230008031C5F89010D5F8901021F48031C5F8A0
:102240009010C5F89000C00711D0FFF75BFB074660
:1022500041F2883907E000BFFFF754FBC11B494535
:1022600001D9032668E7D5F890008007F4D5D5F8A2
:102270009000216D20F440700843C5F890005BE7A2
:10228000404505D10121201D01F08AFC00B1064620
:102290002068400317D5D5F88800616C20F04060B5
:1022A0000843C5F88800606CB84204D1E86840F47F
:1022B0008010E86007E0404505D10121201D01F0B4
:1022C0006FFC00B106462088400411D5D5F888007F
:1022D000A16C20F040500843C5F88800A06CB0F114
:1022E000805F05D10221201D01F05AFC00B1064695
:1022F0002088000406D555F8880FE16C20F0804056
:1023000008432860304600F005B800000010024085
:102310000070004018BCBDE8E08F00002DE9F047D8
:102320000F46050058D0404E306800F00700B84214
:1023300009D2306820F0070038433060306800F080
:102340000700B84248D12878384CC0072CD06868BC
:10235000032811D0022812D0216898B1490500291C
:102360003ADAA16821F003010143A160FFF7CAFA3C
:10237000804641F2883910E021688901EFE7216841
:102380008903ECE78907EAE7FFF7BCFAA0EB08014D
:10239000494502D90320BDE8F087A068696800F0CC
:1023A0000C00B0EB810FEFD12878800705D5A0682D
:1023B000A96820F0F0000843A060306800F0070032
:1023C000B8420BD9306820F00700384330603068DD
:1023D00000F00700B84201D00120DCE72878400770
:1023E00005D5A068E96820F4E0600843A06028787B
:1023F000000706D5A068296920F4605040EAC100B2
:10240000A06000F05FF8A168094AC1F30311515CB4
:1024100001F01F01C8400749086007480068BDE88F
:10242000F047FFF755BD00000020024000100240B9
:1024300090660008540000204C0000200F2202602B
:102440000C4A936803F003034360936803F0F003BE
:102450008360936803F4E063C36092684FF4E063C1
:1024600003EAD20202610448006800F00700086035
:102470007047000000100240002002400548064955
:1024800000688968054AC1F30221515C01F01F010F
:10249000C84070475400002000100240D066000879
:1024A0000548064900688968054AC1F3C221515CA4
:1024B00001F01F01C8407047540000200010024086
:1024C000D066000870B52549002318468A68CC6894
:1024D00012F00C0204F00306214C4FEA640509D007
:1024E0000C2A05D0042A32D0082A00D1284670BD13
:1024F000012E10D10B681B0704D4D1F89430C3F31C
:10250000032302E00B68C3F30313164E56F823307F
:10251000DAB10C2AEBD1C86800F00300022818D009
:10252000032818D01846CA68CB68C2F30212C3F356
:1025300006234343521CB3FBF2F2C868C0F3416068
:10254000401C4000B2FBF0F070BD184670BD204644
:1025500070BD2046E7E72846E5E70000001002408E
:102560000024F400A06600082DE9F84304006FD0B1
:10257000FE4DA86800F00C06E86800F0030720781C
:10258000C00664D576B10C2E01D1012F0AD0A06906
:10259000002828687AD040F001002860FFF7B2F9DF
:1025A00080465DE02868800702D5A0690028DED05B
:1025B000216A2868000703D5286800F0F00004E0CD
:1025C000D5F89400F02202EA1010814216D908468C
:1025D00001F07CFB00283BD1286840F0080028600F
:1025E0002868216A20F0F000084328606868E169E3
:1025F00020F47F4040EA0120686016E0286840F03F
:10260000080028602868216A20F0F000084328604C
:102610006868E16920F47F4040EA0120686026B9DB
:10262000206A01F053FB0028D5D1FFF74BFFA968C2
:10263000CF4AC1F30311515C01F01F01C840CD49DD
:102640000860CD480068FFF743FC00287ED12EE0EB
:10265000CAE000BFFFF756F9A0EB0800022876D8C1
:1026600028688007F6D5286840F0080028602868A8
:10267000216A20F0F000084328606868E16920F4CE
:102680007F4040EA0120686011E0FFE720F0010090
:102690002860FFF737F9804606E000BFFFF732F900
:1026A000A0EB08000228DAD828688007F6D4207842
:1026B000C00740D0082E18D00C2E01D1032F14D003
:1026C0006068B0F5803F17D0B0F5A02F286817D00C
:1026D00020F480302860286820F48020286060681A
:1026E000E0B1FFF70FF9804614E02868800322D597
:1026F0006068002878D01EE0286840F48030EDE75C
:1027000040F480202860F7E7FFF7FCF8A0EB080012
:102710006428A4D828688003F6D50CE0FFF7F2F807
:10272000804605E0FFF7EEF8A0EB0800642896D895
:1027300028688003F6D4207880073BD5042E11D07A
:102740000C2E01D1022F0DD0E06801E0B6E1FFE0D0
:10275000002828681ED040F480702860FFF7D2F867
:1027600007460CE0286840050CD5E0680028C1D079
:1027700008E000BFFFF7C6F8C01B022893D82868FE
:102780004005F7D56868217C20F0F85040EA0160E8
:1027900068600FE020F480702860FFF7B3F8074608
:1027A00005E000BFFFF7AEF8C01B0228B1D82868CB
:1027B0004005F7D42078000729D560690028D5F8AE
:1027C000940012D040F00100C5F89400FFF79AF889
:1027D000074604E0FFF796F8C01B022899D8D5F801
:1027E00094008007F6D512E02BE120F00100C5F837
:1027F0009400FFF787F8074605E000BFFFF782F86F
:10280000C01B022885D8D5F894008007F6D420781C
:10281000400766D5A86D0027C00008D4A86D40F019
:102820008050A865A86D012700F0805000905348A3
:102830000168C90512D40168814641F480710160C4
:10284000FFF760F8804605E0FFF75CF8A0EB0800B2
:1028500002287DD8D9F80000C005F5D5A068012868
:1028600016D00528D5F8900017D020F00100C5F843
:102870009000D5F8900020F0040000BFC5F890004B
:10288000A06841F28839C0B1FFF73CF880460FE0FC
:10289000D5F8900040F00100F0E740F00400C5F8E2
:1028A0009000F5E7FFF72EF8A0EB080149454FD857
:1028B000D5F890008007F5D50EE0FFF723F88046A5
:1028C00006E000BFFFF71EF8A0EB080149453FD81E
:1028D000D5F890008007F5D41FB1A86D20F0805086
:1028E000A8652078800628D5606A0028D5F8980069
:1028F00012D040F00100C5F89800FFF703F8074632
:1029000005E000BFFEF7FEFFC01B022820D8D5F867
:1029100098008007F6D510E020F00100C5F8980077
:10292000FEF7F0FF074604E0FEF7ECFFC01B0228AD
:102930000ED8D5F898008007F6D4A06AA8B102286E
:1029400024D00C2E7DD0286820F08070286000E014
:10295000B3E02868000103D4E86820F00300E860D1
:10296000E86807490840E8600CE09FE0001002407A
:1029700090660008540000204C00002000700040C9
:10298000FFFFEEFEFEF7BEFF044699E0E868E26A4C
:1029900000F00301914226D1216B00F07002090181
:1029A000103991421FD1626B00F4FE41B1EB022F4E
:1029B00019D194F8382000F07841B1EBC26F12D1F0
:1029C000A18F00F4C00249084905A1F50011914208
:1029D00009D194F8401000F0C06049084906A1F1FF
:1029E000007181424BD00C2E6FD0286840016CD40E
:1029F000286820F080702860FEF784FF064604E017
:102A0000FEF780FF801B022857D828688001F7D482
:102A1000F4E90B016FF00F0202EB01110843218A68
:102A20005204490802EB4151A26841EA02210843DD
:102A3000217D4FF07E42490802EB41610843217B32
:102A400000E042E040EAC160E968214A11400843E1
:102A5000E860286840F080702860E86840F0807086
:102A6000E860FEF74FFF044605E000BFFEF74AFFAF
:102A7000001B022821D828688001F7D523E02868A8
:102A8000800120D4286840F080702860E86840F019
:102A90008070E860FEF736FF044604E0FEF732FF80
:102AA000001B022809D828688001F7D50BE000BF79
:102AB000FEF728FF001B022802D90320BDE8F88397
:102AC00028688001F4D40020F8E70120F6E7000030
:102AD0008C809D017047704770470000F0B590F8FA
:102AE0003C20012A29D0012480F83C40022280F8B1
:102AF0003D2003685A689D68114EB34203D122F409
:102B000070074A683A4322F070070A683A435A60ED
:102B10000268B24205D0B2F1804F02D0094B9A420E
:102B200004D1896825F080031943916080F83D4005
:102B3000002180F83C100846F0BD0220F0BD0000E6
:102B4000002C01400040014010B5040003D094F86F
:102B50003D0010B107E0012010BD002084F83C00CA
:102B6000204600F023F8022084F83D00211D206853
:102B700001F0A0FB012084F8480084F83E0084F8AE
:102B80003F0084F8400084F8410084F8420084F853
:102B9000430084F8440084F8450084F8460084F833
:102BA000470084F83D00002010BD000010B586B03D
:102BB000044614216846FDF722FD214A2168214878
:102BC000914230D1016E41F400610166016E01F461
:102BD00000610591C16C41F00101C164C06C69469E
:102BE00000F0010005904FF4A060009002200190D9
:102BF000002002900390012004904FF09040FEF7D7
:102C0000A3FD00220F211920FFF7C4F91920FFF7B7
:102C1000B3F9002205211B20FFF7BCF91B20FFF7A9
:102C2000ABF906B010BDB1F1804FFAD1816D41F022
:102C300001018165806D00F001000590F1E7000061
:102C4000002C01400010024090F83D10012901D0F5
:102C500001207047022180F83D1000680B4988422E
:102C600005D0B0F1804F02D00949884207D1816870
:102C7000084A1140062906D0B1F5803F03D001680B
:102C800041F001010160002070470000002C01406C
:102C9000004001400700010090F83D10012901D0DB
:102CA00001207047022180F83D100168CA6842F097
:102CB0000102CA6000680B49884205D0B0F1804F1C
:102CC00002D00949884207D18168084A1140062983
:102CD00006D0B1F5803F03D0016841F001010160E9
:102CE00000207047002C0140004001400700010017
:102CF00070B5044690F83C00012817D0012584F8EF
:102D00003C50022084F83D00226890682E4B184009
:102D100020F47F4090600868502830D00DDC2028D7
:102D20004DD005DC98B310283BD148E0022070BD9F
:102D3000302844D0402834D139E0602828D0702889
:102D400006D0B0F5805F2CD0B0F5005F29D10AE045
:102D5000CB68D1E90121206801F0EFFA2068816891
:102D600041F0770109E0CB68D1E90121206801F049
:102D7000E4FA2068816841F48041816011E0CA680A
:102D80004968206801F02AFC5021206807E016E01D
:102D9000CA684968206801F05BFC6021206801F086
:102DA000D6FA84F83D50002084F83C0070BDCA6813
:102DB0004968206801F012FC40212068EFE7226892
:102DC00001461046EBE7000088FFFEFF70472DE943
:102DD000F041054690F83C000C46012836D0012011
:102DE00085F83C008AB3042A42D02868082A51D0CA
:102DF000D4E90023E168066A26F480560662C669B3
:102E0000076A26F4407646EA03234FF6FF7606EA81
:102E1000013123F4704319434FF4204627F4204333
:102E200006EA02321A43C16102622868C16921F4CC
:102E30004061C1612868C169A26841EA0221C1619B
:102E4000002085F83C00BDE8F08101E00220FAE7AF
:102E5000D4E90012E368286801F0D2FB2868816990
:102E600021F00C01816128688169A26811430FE09B
:102E7000D4E90012E368286801F0FCFB2868816946
:102E800021F44061816128688169A26841EA0221D8
:102E90008161D5E7D4E90027267B016A21F480719E
:102EA0000162C169036A21F00301394321F0F0078F
:102EB00031074FF4206647EA116123F4206306EAE4
:102EC00002221A43C16102622868C16921F00C0123
:102ED000C1612868C169A2681143B0E710B5040058
:102EE00003D094F83D0010B107E0012010BD002090
:102EF00084F83C00204600F022F8022084F83D00CF
:102F0000211D206801F0D6F9012084F8480084F8DA
:102F10003E0084F83F0084F8400084F8410084F8C3
:102F2000420084F8430084F8440084F8450084F8A3
:102F3000460084F8470084F83D00002010BD70472B
:102F400010B5044679B1042912D0082915D00C29EE
:102F500018D0102919D094F8430000BF94F84720E6
:102F6000012817D114E094F83E0094F84420F7E7C4
:102F700094F83F0094F84520F2E794F8400094F864
:102F80004620EDE794F84100E8E794F84200E5E7D1
:102F9000012A01D0012010BD022071B1042915D0F1
:102FA00008291CD00C293FD0102940D084F84300B8
:102FB00084F847000C291BD13CE084F83E0084F8DB
:102FC00044002068C26842F0020210E084F83F002A
:102FD00084F845002068C26842F0040207E084F8E3
:102FE000400084F846002068C26842F00802C260CF
:102FF0000122206801F094F911492068884205D027
:10300000B0F1804F02D00F49884207D181680E4A43
:103010001140062906D0B1F5803F03D0016841F088
:1030200001010160002010BD84F84100C0E784F870
:103030004200BDE72068C26842F01002D7E70000F6
:10304000002C0140004001400700010070B504461B
:10305000006801694FF00005C943890715D4C168AC
:10306000C943890711D4E91E016101202077206836
:1030700080698007204602D0FFF7A8FE04E000F038
:10308000CDF8204600F08CF9257720680169C94306
:10309000490717D4C168C943490713D46FF0040125
:1030A0000161022020772068806910F4407F20466B
:1030B00002D0FFF78BFE04E000F0B0F8204600F0ED
:1030C0006FF9257720680169C943090716D4C168DB
:1030D000C943090712D46FF0080101610420207769
:1030E0002068C0698007204602D0FFF76FFE04E029
:1030F00000F094F8204600F053F925772068016924
:10310000C943C90617D4C168C943C90613D46FF0AF
:1031100010010161082020772068C06910F4407F09
:10312000204602D0FFF752FE04E000F077F8204678
:1031300000F036F9257720680169C943C90708D12D
:10314000C168C943C90704D1891E0161204600F046
:1031500091F920680169C943090609D4C168C943C6
:10316000090605D46FF0800101612046FFF7B3FC2A
:1031700020680169C943C90509D4C168C943090662
:1031800005D46FF4807101612046FFF7A3FC20682D
:103190000169C943490609D4C168C943490605D430
:1031A0006FF040010161204600F083F92068016959
:1031B000C94389060BD4C168C943890607D46FF097
:1031C000200101612046BDE87040FFF785BC70BD5D
:1031D00010B586B0044614216846FDF710FA206841
:1031E000B0F1804F15D10C48C16C41F00101C164B0
:1031F000C06C022100F0010005900120CDE9000122
:1032000000210291CDE9031069464FF09040FEF78E
:103210009BFA06B010BD000000100240704770B568
:10322000044690F83C000D4601280BD0012084F89C
:103230003C000C2A45D007DC5AB1042A1BD0082ACE
:1032400078D12CE0022070BD102A4ED0142A71D102
:103250005DE0206801F084F82068816941F0080190
:1032600081612068816921F00401816120688169A0
:103270002A69114311E0206801F0AEF820688169E5
:1032800041F4006181612068816921F4806181617C
:10329000206881692A6941EA022181614AE0206847
:1032A00001F0D6F82068C16941F00801C1612068C9
:1032B000C16921F00401C1612068C1692A69114313
:1032C00011E0206801F0FEF82068C16941F4006156
:1032D000C1612068C16921F48061C1612068C16950
:1032E0002A6941EA0221C16124E0206801F01AF94B
:1032F0002068416D41F0080141652068416D21F071
:10330000040141652068416D2A69114311E020687C
:1033100001F036F92068416D41F400614165206893
:10332000416D21F4806141652068416D2A6941EA5F
:1033300002214165002084F83C0070BD10B50400F6
:1033400003D094F83D0010B107E0012010BD00202B
:1033500084F83C00204600F022F8022084F83D006A
:10336000211D206800F0A6FF012084F8480084F8A1
:103370003E0084F83F0084F8400084F8410084F85F
:10338000420084F8430084F8440084F8450084F83F
:10339000460084F8470084F83D00002010BD7047C7
:1033A0007047000010B50446022269B1042912D00A
:1033B000082917D00C291CD0102921D094F84300DB
:1033C000012824D0012010BD94F83E000128F9D135
:1033D00084F83E201DE094F83F000128F2D184F8E3
:1033E0003F2016E094F840000128EBD184F84020FB
:1033F0000FE094F841000128E4D184F8412008E06E
:1034000094F842000128DDD184F8422001E084F8DC
:1034100043200122206800F083FF12492068124AED
:10342000884204D0904202D0104B984203D1436CA2
:1034300043F4004343642068884204D0B0F1804FD5
:1034400001D0904207D18168094A1140062906D06F
:10345000B1F5803F03D0016841F001010160002017
:1034600010BD0000002C014000400140004401401C
:103470000700010000680349884201D1FEF710BD32
:1034800070470000004401400246002041B1042979
:1034900009D008290AD00C2901D11068006C7047A6
:1034A0001068406B70471068806B70471068C06B85
:1034B0007047704710B5040002D0A06F10B107E04C
:1034C000012010BD002084F87400204600F026F88A
:1034D0002420A0672068016821F0010101602046D6
:1034E00001F076F90128ECD0606A10B1204601F0B5
:1034F000DCF82068416821F49041416020688168CF
:1035000021F02A0181602068016841F00101016019
:103510002046BDE8104001F02CB900002DE9F04331
:103520009BB00446142115A8FDF769F8542168469C
:10353000FDF765F834492068344C0327002502263E
:103540004FF007084FF09049884235D10120009094
:1035500008956846FEF79CFD08B1FEF796F8206EC8
:1035600040F480402066206E00F480401A90E06CA9
:1035700040F00100E064E06C00F001001A90E06CA3
:1035800040F00200E064E06C179500F002001A9031
:103590004FF40070CDE91506CDE91878444615A919
:1035A0004846FEF7D1F880201795CDE91506CDE9FC
:1035B000187415A9164822E01649884221D1684698
:1035C00000960995FEF764FD08B1FEF75EF8A06D60
:1035D00040F40030A065A06D00F400301A90E06C5B
:1035E00040F00100E064E06C17AA00F001001A90BE
:1035F0000C20CDE9150682E8A00115A94846FEF782
:10360000A3F81BB0BDE8F083003801400010024071
:1036100000040048004400402DE9F8430446806F50
:103620001F4616460D4620284FD1CDB1C6B194F89D
:103630007400012849D0012084F874004FF000087C
:10364000C4F880802120A067FEF75CF9A4F85060E0
:103650008146A4F85260A068B0F5805F03D004E012
:103660000120BDE8F883206928B12E465FF00005EF
:1036700084F8748010E00026FAE78021204601F0EB
:1036800097F9B8B9C6B116F8010B21680885B4F8E6
:103690005200401EA4F85200B4F852004B464FF0BE
:1036A000000200970028E8D14FF04001204601F0C9
:1036B0007FF930B10320D4E735F8020BC0F30800DE
:1036C000E3E72020A0670020CBE70220C9E7FEE760
:1036D00001688A69D243920701D400228A62006895
:1036E0008169C943C90703D0816941F00101816142
:1036F000704700002DE9F0410446006890460E46F0
:103700008069C043C00633D4002520272068806923
:10371000C043800615D5701CF8D0FEF7F3F8A0EB77
:103720000800B04201D8002EF0D154F8440F40F008
:10373000200044F804096770A57025700120BDE8D9
:10374000F08121681020C8612068C7612046FFF71A
:10375000BFFF54F8440B4168064A1140416020689D
:1037600040F0040044F820096777A5772577E5E75E
:103770000020E4E700E800FEF0B50568059C6868F5
:103780004FF48066064FC1F3090106EA545641EA38
:1037900002413E431943B043214308436860F0BDF2
:1037A000FF63FF032DE9F0411D4617460E46044610
:1037B000DDF8188008E0681C06D0FEF7A3F8A0EB3F
:1037C0000800A8420BD855B12068806936EA00008D
:1037D00012D00020B842EED00020BDE8F08154F8AD
:1037E000440F40F0200044F80409202060700020BD
:1037F000A07020700120F0E70120EBE72DE9F041F7
:10380000002690460F460446202525E042463946CC
:103810002046FFF76FFF78BB20688069C0438006B1
:1038200013D420688169C943490701D4218DC1B9E6
:10383000C56154F8440B4168104A1140416044F896
:1038400020696577A677267716E0FEF75BF8A0EB90
:103850000800B84208D83FB120688069C0434007DB
:10386000D4D40020BDE8F08154F8440F40F020008B
:1038700044F80409657026700120F3E700E800FEB3
:1038800070B516460D4604460DE0324629462046E0
:10389000FFF730FF08B1012070BDFEF733F8801B41
:1038A000A84207D835B120688069C0438006ECD4AF
:1038B000002070BD54F8440F40F0200044F8040983
:1038C000202060700020A0702070E4E770B51646DC
:1038D0000D4604460FE0324629462046FFF70AFF10
:1038E00008B1012070BD681C05D0FEF70BF8801BE5
:1038F000A84207D835B120688069C0438007EAD460
:10390000002070BD54F8440F40F0200044F8040932
:10391000202060700020A0702070E2E710B586B013
:1039200014216846FCF76BFE1548C16C41F0040198
:10393000C164C16C01F004010591C16C41F0010149
:10394000C164C16C01F001010591C16C41F002013B
:10395000C164C06C0B4C00F00200059000224821AD
:103960002046FDF7CAFF4820009001200021CDE944
:103970000101039169462046FDF7E6FE06B010BD41
:103980000010024000040048134810B511490160BE
:1039900040F20311416000210122C0E902120161DD
:1039A00041618161C1610162FEF706F808B172B63A
:1039B000FEE700210848FDF7ABFF08B172B6FEE74D
:1039C00000210548FDF7CFFF002801D072B6FEE7C1
:1039D00010BD0000005C0040D800002010B58CB085
:1039E00000240A942748079408940994059406949F
:1039F00004940094019402942149039401600721E6
:103A0000C0E901144FF6FF71C0E9031444618461F9
:103A1000FFF79AF808B172B6FEE74FF480500790AE
:103A200007A91848FFF764F908B172B6FEE7154810
:103A3000FFF754FA08B172B6FEE70494059404A99E
:103A400010480694FFF74AF808B172B6FEE7012065
:103A5000CDE900400294002269460A480394FFF72A
:103A6000B6F908B172B6FEE7082269460548FFF7C5
:103A7000AEF9002801D072B6FEE70CB010BD000010
:103A8000002C01402401002010B58EB000240794C2
:103A9000089409940A940B940C941C2168460D9484
:103AA000FCF7ADFD1C484FF08041C0E900140A212D
:103AB000C0E9024104618461FFF746F808B172B6BB
:103AC000FEE74FF48050079007A91348FFF710F95D
:103AD00008B172B6FEE71048FFF730FC08B172B6C5
:103AE000FEE70B940BA90C480D94FEF7F7FF08B105
:103AF00072B6FEE76020CDE9000402940022694618
:103B000005480494FFF78BFB08B172B6FEE7024844
:103B1000FFF75EFB0EB010BD700100200C4810B521
:103B20000A4901604FF416514160002181600C2266
:103B3000C160C0E904128161C16101624162FFF7A5
:103B4000B9FC002801D072B6FEE710BD0038014074
:103B5000BC0100200C4810B50A4901604FF4165111
:103B60004160002181600C22C160C0E904128161C2
:103B7000C16101624162FFF79DFC002801D072B66D
:103B8000FEE710BD0044004040020020012000F08C
:103B9000E3FFFBE7012000F0DFFFFBE7FEE7FEE7C6
:103BA0002DE9F041444C05468846E068002681072F
:103BB00028680DD0E16801F00301814216D1A8B157
:103BC000E0686968C0F30210401C88420ED120E012
:103BD000012804D0022805D0032807D108E0216875
:103BE000890701E021684905002907DB01265FE01C
:103BF0002168890302D421684903F5E7E1686A680E
:103C00006FF00F0321F0730103EB02121143014324
:103C1000E160206820F080602060FDF773FE0746B9
:103C200005E000BFFDF76EFEC01B022837D82068F4
:103C30000001F7D4B8F1000F18D0B8F1010F1DD072
:103C4000287D4FF07E41400801EB4060A96840EAC2
:103C500001202169194A114008432061206840F081
:103C600080602060FDF74EFE07461AE0A868297BB9
:103C7000000240EAC1602169114AECE7288A114933
:103C8000400801EB4050A96840EA012021690E4A32
:103C9000E1E700BFFDF736FEC01B022801D903266D
:103CA00006E020680001F5D52069A9690843206174
:103CB0003046BDE8F081000000100240FF80FFF9AF
:103CC000FF80FF070000E0FFFF809FFFF8B51C4D5D
:103CD00006460024A86DC00002D5FEF7C1F90DE02C
:103CE000A86D40F08050A865A86D00F0805000904D
:103CF000FEF7B6F9A96D21F08051A965B0F5007FF6
:103D000004D0802E07D94FF003040AE0802E08D992
:103D1000A02E01D804E001D1022402E0702E00D1CF
:103D200001240848016821F007012143016000686F
:103D300000F00700A04201D00120F8BD0020F8BD2E
:103D40000010024000200240A4B04FF0FF332822B0
:103D5000D0216148FDF78CFE58B9604D012408213F
:103D60002846FDF7C2FDFA20FDF7DCFC641C0A2C96
:103D7000F5DD00208DF874008DF8750028240223ED
:103D80001DAAD02154480094FDF79EFF01208DF814
:103D9000780040208DF8790002231EAAD0214E48D9
:103DA0000094FDF791FF02208DF87C004B2503461F
:103DB0008DF87D501FAAD02147480094FDF784FF5D
:103DC0000B208DF8800041208DF88100022320AA6D
:103DD000D02141480094FDF777FF0C208DF8840036
:103DE0008DF88550022321AAD0213B480094FDF78D
:103DF0006BFF0E208DF888001E208DF889000223AD
:103E000022AAD02134480094FDF75EFF0F208DF8E0
:103E10008C0080208DF88D00022323AAD0212E480B
:103E20000094FDF751FF642104A8FCF7E8FB0DF1B5
:103E300074090DF1780A0DF17C0B01231DAAD02124
:103E400025480094FDF740FF012309F10102D1212B
:103E500021480094FDF7A2FE9DF8751001230F097B
:103E600001F00F081EAAD0211B480094FDF72CFF7B
:103E700001230AF10102D12117480094FDF78EFEBB
:103E80009DF879000123050900F00F061FAAD02133
:103E900011480094FDF718FF01230BF10102D12115
:103EA0000D480094FDF77AFE9DF87D008DE8E00155
:103EB000C0F3001200F00F0309A104A8FCF7CEFA2A
:103EC0002823642204A90B48FFF7A6FB4FF47A705D
:103ED000FDF728FCB1E70000D800002000040048EE
:103EE000256425643A256425643A256425640D0A11
:103EF00000000000400200202448FEF7A5FE244FE9
:103F0000002240213846FDF7F8FC204C214D0026C8
:103F10004FF4FA78286800284FF064001AD000F0B7
:103F20001BFE012240213846FDF7E7FC206846626F
:103F30002068416A0A29FCD3002240213846FDF757
:103F4000DCFC08211148FEF7FBFF4046FDF7EAFBC9
:103F50002E60DFE700F000FE012240213846FDF729
:103F6000CCFC206846622068416A0A29FCD3002202
:103F700040213846FDF7C1FC00210448FEF7E0FF70
:103F80004046FDF7CFFB01202860C3E72401002055
:103F90000004004800000020012000F0DDFDFBE7E8
:103FA0000EB5114C4FF0FF364FF47A750FA2334621
:103FB00007CA8DE807000A2269460F48FFF72CFB65
:103FC000012208212046FDF798FC2846FDF7AAFBB0
:103FD000002208212046FDF790FC2846FDF7A2FBB1
:103FE000012000F0B9FDE1E70004004857415445C5
:103FF00052206F70656E00004002002010B54FF037
:10400000E020006901F0E0FF012803D0BDE8104086
:1040100001F00ABD10BD000010B596B044216846FD
:10402000FCF7EDFA142111A8FCF7E9FA4FF400703F
:10403000FDF7E2FF08B172B6FEE7FEF719F819487E
:1040400050F8901F21F01801016014200090012009
:104050000290002460210690CDE907410221CDE9BC
:104060000A100C9010200D900720CDE90E010420BD
:1040700010906846FEF778FA08B172B6FEE70F2096
:10408000119003201290B020CDE91304002111A853
:104090001594FEF743F908B172B6FEE7FDF7F0FF9D
:1040A00016B010BD001002400B48016841F47001C9
:1040B00001600A48016841F001010160002181604E
:1040C0000268074B1A4002608214C260026822F440
:1040D000802202608161704788ED00E0001002409C
:1040E000FFFFF6EA2DE9F0472DED048B4FF00108B4
:1040F0005F4F604C604D3868217850EA01020ED065
:104100004FF000099FED5D9B9FED5E8B4FF0FF36FA
:10411000012801D060B364E06078B8B164E00021A8
:104120005548FFF7B1F9A0602868016A21F00A013B
:1041300001622868016A41F00201016284F800808E
:104140003868012813D16078002810D108214A4826
:10415000FFF79AF920612868016A21F42061016261
:104160002868016A41F40071016284F8018077E0F7
:10417000012975D100214048FFF786F9E0602968E0
:104180000A6A22F00A020A6229680A6A0A62A168B7
:10419000401A02F0E5F853EC192B02F0F5F853EC55
:1041A000182B02F0F1F841EC100B38A153EC102B56
:1041B0003748FCF753F92F49334607221F3135485A
:1041C000FFF72AFA3346092231493248FFF724FA29
:1041D000284933460222891C2E48FFF71DFA84F82D
:1041E0000090386801283BD16078012838D1082137
:1041F0002148FFF749F9606129680A6A22F42062C0
:104200000A6229680A6A0A622169401A02F0A8F85B
:1042100053EC192B02F0B8F853EC182B02F0B4F859
:1042200041EC100B1A4853EC102B18A10930FCF785
:1042300015F910493346062218311648FFF7ECF9F4
:1042400013493346092209311248FFF7E5F90949B4
:1042500033460222891C0F48FFF7DEF984F80190EB
:104260000548BDEC048BBDE8F047FEF7EFBE00004B
:10427000000000202000002024010020C1CAA14528
:10428000B6F3D53F000000000000E03F25660000C7
:10429000C40200204002002010B50448FEF7D6FEFC
:1042A000BDE810400248FEF7D1BE00002401002006
:1042B000D802002070B50268164B4FF08046984235
:1042C00001D0B04203D122F070044A682243124C5C
:1042D000124D984205D0B04203D0A04201D0A8426E
:1042E00003D122F44076CA6832434E6922F080023C
:1042F000324302608A68C2620A688262984203D0CE
:10430000A04201D0A84201D10969016301214161A4
:1043100070BD0000002C01400040014000440140FD
:1043200010B501F01F030121046A99408C43046217
:10433000016A9A401143016210BD10B5846842EAD7
:10434000032224F47F440A432243826010BD826822
:1043500022F070020A4342F00701816070470000BA
:10436000F0B5026A22F001020262056A43688269BE
:10437000154C25F0020522400C6822F0030214437C
:104380008A68134E2A43114D124FA84203D0B042FF
:1043900001D0B84206D122F0080CCA6842EA0C02E9
:1043A00022F00402A84203D0B04201D0B84205D1A5
:1043B0004D6923F440731D438B692B434360846133
:1043C000496841630262F0BD8FFFFEFF002C01408F
:1043D000004001400044014030B5026A22F0100262
:1043E0000262046A42688369154D2B400D6823F40C
:1043F000407343EA052524F020038C6843EA041344
:10440000104CA04207D1CC6823F0800343EA041388
:1044100023F0400305E00C4CA04202D00B4CA0421C
:1044200007D14C6922F4406242EA84028C6942EA74
:1044300084024260856149688163036230BD000087
:10444000FF8FFFFE002C014000400140004401406E
:1044500030B5026A22F480720262046A4268C3695B
:10446000144D2B400D6823F003031D4324F4007307
:104470008C6843EA0423104CA04207D1CC6823F493
:10448000006343EA042323F4806305E00B4CA0425D
:1044900002D00B4CA04207D14C6922F4405242EAB0
:1044A00004128C6942EA04124260C5614968C16322
:1044B000036230BD8FFFFEFF002C01400040014031
:1044C0000044014030B5026A22F480520262046A5C
:1044D0004268C3690F4D24F400542B400D6823F447
:1044E000407343EA05238D6844EA05340A4DA84227
:1044F00005D00A4DA84202D0094DA84204D14D6909
:1045000022F4804242EA85124260C3614968016434
:10451000046230BDFF8FFFFE002C014000400140CF
:104520000044014030B5026A22F480320262046A1B
:104530004268436D0E4D2B400D681D4324F400333B
:104540000C8943EA04430B4CA04205D00A4CA0421C
:1045500002D00A4CA04204D14C6922F4803242EAD3
:1045600004224260456549688165036230BD0000F0
:104570008FFFFEFF002C014000400140004401403D
:1045800030B5026A22F480120262046A4268436D06
:104590000E4D24F400142B400D6843EA05230D89C9
:1045A00044EA05540A4DA84205D00A4DA84202D05B
:1045B000094DA84204D14D6922F4802242EA8522A5
:1045C000426043654968C165046230BDFF8FFFFEEC
:1045D000002C0140004001400044014010B5036A36
:1045E000046A24F001040462846924F0F00444EABB
:1045F000021423F00A020A438461026210BD000023
:1046000070B5046A24F0010404628469056A0E4EE0
:10461000B04205D0B0F1804F02D00C4EB04203D171
:1046200024F00304144301E044F001041A0724F0C9
:10463000F00444EA126225F00A0301F00A0119436A
:104640008261016270BD0000002C01400040014009
:1046500010B5036A23F0100303628369046A23F42C
:10466000704343EA023224F0A00343EA011182615D
:10467000016210BD30B5046A24F01004046284693C
:10468000056A24F4407444EA022222F470444FF68E
:10469000FF7202EA03322243A02425F0A00304EAB9
:1046A000011119438261016230BD90F82410C907DD
:1046B00006D001684A68836A22F400321A434A60CD
:1046C00090F82410890706D501684A68C36A22F465
:1046D00080321A434A6090F82410490706D50168D1
:1046E0004A68036B22F480221A434A6090F824102F
:1046F000090706D501684A68436B22F400421A4351
:104700004A6090F82410C90606D501688A68836B50
:1047100022F480521A438A6090F82410890606D544
:1047200001688A68C36B22F400521A438A6090F8C9
:104730002410490611D501684A68036C22F48012DE
:104740001A434A60016CB1F5801F06D101684A68BE
:10475000436C22F4C0021A434A6090F82410090600
:1047600006D501684A68806C22F4002202434A6040
:104770007047F8B500260446C0F88060FDF7C2F81F
:104780000546206800686FF07E47000708D52B4675
:1047900000224FF400112046009700F009F960B99B
:1047A0002068006840070AD52B4600224FF480019C
:1047B0002046009700F0FCF808B10320F8BD202047
:1047C000A067E067266684F874600020F8BD0000EA
:1047D0002DE9F041044600682269A168E6691143A9
:1047E00062690025324311436A4B02686A4E3240C7
:1047F0000A43026020684168E26821F44051114395
:1048000041602168A069994201D0226A10438A68F8
:1048100022F4306202438A606049276860488F4210
:104820000DD1D0F8880010F0030006D0012838D050
:10483000022834D0032821D135E001211FE0594955
:104840008F420BD1D0F8880010F00C0025D004283E
:1048500027D0082823D00C2810D124E09F420DD166
:10486000D0F8880010F4406017D0B0F5806F18D0F1
:10487000B0F5006F13D0B0F5406F14D010214A4846
:1048800000264FF400429F422DD171B1022912D06F
:1048900004290DD0082971D123E00021EFE702217E
:1048A000EDE70421EBE70821E9E7FDF7E7FD01E08B
:1048B000FDF708FEE8B3626802EB420181425DD871
:1048C000B0EB023F5AD8010E03025008181871418C
:1048D0000023FBF74BFD354AA0F54071914251D9B9
:1048E0004CE01046E7E7E3694FF6EF77934229D1B2
:1048F000092943D2DFE801F005080E420B4242428B
:104900002400FDF7BBFD04E0FDF7CAFD01E0FDF763
:10491000D9FD70B14100606801EB5001B1FBF0F0CE
:1049200080B2A0F11001B94228D84FF6F0710140D1
:1049300000E029E0C0F3420001432068C16023E0A9
:104940001046E7E7092919D2DFE801F005080E183B
:104950000B1818181A00FDF791FD04E0FDF7A0FDF3
:1049600001E0FDF7AFFD78B1616800EB5100B0FBED
:10497000F1F080B2A0F11001B94203D9012503E0A2
:104980001046F1E72168C86066662846A666BDE85D
:10499000F081000000800040F369FFEF0038014023
:1049A00000100240004400400024F400FFFC0F000F
:1049B0002DE9F0479A4617460E4604464FF0000987
:1049C0004FF02008089D39E0681C37D0FCF79AFFAB
:1049D000A0EB0A00A84222D80DB32068016849075D
:1049E0002CD5C069C043000528D421684FF400606D
:1049F00008622068016821F4D07101602068816834
:104A000021F001018160C4F87880C4F87C80C4F88A
:104A1000808000BF84F874900320BDE8F087206890
:104A2000016821F4D07101602068816821F00101E2
:104A30008160C4F87880C4F87C80EBE72068C069A6
:104A400036EA000004D00020B842BDD00020E4E7E0
:104A50000120F9E7FEE703B401984100009850EA0D
:104A6000C12018BF04204A0D18BF40F0010040F2D9
:104A7000FF72B2EB515F08BF40F00200012808BF8F
:104A8000052002B070470907090E002804DB00F179
:104A9000E02080F80014704700F00F0000F1E020E3
:104AA00080F8141D70470000FDF702FAFFF7B4FA12
:104AB000FEF734FFFFF74EF8FEF790FFFEF764FFB6
:104AC000FEF7E2FFFFF72AF800F054F8194A002138
:104AD000194800F07DF8194C164A00216060243214
:104AE000174800F075F8134AA060483200211548B5
:104AF00000F06EF80F4AE0606C320021124800F0BE
:104B000067F80C4A206190320021104800F060F8EC
:104B1000084A6061B43200210D4800F059F8054A96
:104B2000A061D83200210B4800F052F8E06100F09B
:104B300033F8FEE794650008493D000800000020B6
:104B4000F93E00088D3B0008953B0008A13F000896
:104B500091160008993F000810B5EFF3058111B1D7
:104B60006FF0050403E0002408B100F0FDFD2046CD
:104B700010BD0000EFF3058010B16FF00500704725
:104B80000448016811B14FF0FF3070470121016006
:104B900000207047A800002010B5EFF3058010B189
:104BA0006FF0050010BD08480168012902D04FF0E0
:104BB000FF3010BD054A002182F8141D022101605A
:104BC00000F03AFE002010BDA80000200BE000E03D
:104BD0002DE9FF414FEA01034FF00005EFF3058196
:104BE000039549BB40B38027182100244AB31668B7
:104BF00006B1344696691EB13146761E382E02D271
:104C00001679F60703D0002004B0BDE8F08156699C
:104C100006B1B708D2F808C0BCF1000F0DD0D568B6
:104C20005C2D18D312693AB136B18DE806103A46B8
:104C3000214601F09DF903900DE0D6685EB9126936
:104C40004AB903AACDE90012BAB2214601F060F9CF
:104C5000012800D003950398D6E700002DE9F04124
:104C6000134C0F460546E6682068001D00F048FC1E
:104C7000681C07D137B12168BDE8F0410D48091D16
:104C800000F08EBC20683544B5424560216805D2ED
:104C9000A06BBDE8F041091D00F06ABC606B091D06
:104CA00000F066FCA06A854200D2A562BDE8F081F2
:104CB00058000020140800202DE9F041054600F0BE
:104CC0007BFC2D4CA068401CA06020682B4F10B1CD
:104CD000606930B32BE02560A068012827D1002649
:104CE00006EB860007EB800000F034FC761C382EC3
:104CF000F6D3234800F02EFC2148143000F02AFCA3
:104D00001F48283000F026FC1D483C3000F022FCF3
:104D10001B48503000F01EFC194860631430A0633B
:104D200005E02068E96AC06A884200D82560606AA8
:104D3000401C60626864E86A2169884200D9206189
:104D400000EB800007EB8000291D00F029FC00F03B
:104D500053FC606900280CD02068E96AC06A884268
:104D600007D208494FF080500860BFF34F8FBFF360
:104D70006F8FBDE8F0810000580000206403002020
:104D8000C407002004ED00E038B500F015FC104C1D
:104D90002068C8B90F4800F0DDFB0E48143000F061
:104DA000D9FB0C48E060143020610A4B0020F03B36
:104DB000009003F1500210210A2000F04BFE206009
:104DC00010B105A100F09AFCBDE8384000F014BC19
:104DD0009400002018090020546D7251000000005A
:104DE00030B4026C0B46002A0BD0C1681144C1607C
:104DF0008468A14201D30168C16030BC1846FBF74A
:104E0000B1BB30BC70472DE9F041856B17460446B5
:104E10000026026C82B1C7B1E068FBF7A3FBE16832
:104E2000206C091AE1602268914202D2A168081A36
:104E3000E060022F16D017E02068A8B9A06801F042
:104E40003BF906460020A0600EE06068FBF78AFB95
:104E5000216C606808446060A168884204D32068BF
:104E6000606001E005B16D1E6D1CA5633046BDE8B4
:104E7000F08110B5044690F8590058B101280CD0C3
:104E800002280FD0502080F31188BFF34F8FBFF35B
:104E90006F8FFEE7206B00F0C3FB2046BDE810409B
:104EA00000F0BEBB10BD000010484FF4FA5142079D
:104EB00006D0C01D0D4920F00700411AC1F5FA5176
:104EC0000B4A00230144C2E900030839183A21F0D3
:104ED000070111604B600B600B1AC0E9001393606F
:104EE0004FF000405360506170470000F80F002001
:104EF000C4000020144E154CA6F29C474FF0805879
:104F0000DFF84C9012E000BF00F056FBF068C56877
:104F1000281D00F0F5FAA068401EA0606068401EE1
:104F2000606000F069FB2846FFF7A3FF6068002877
:104F3000EAD138680128F9D9C9F80080BFF34F8F4A
:104F4000BFF36F8FF2E70000000800205800002038
:104F500004ED00E070B51D46049C51B1C4F800207A
:104F6000C4E90F010121204600F0A8FD84F84C504F
:104F700070BD2460F4E700002DE9F05F8846DDE9AC
:104F80000B941546834691009A460A9EA522206BF3
:104F9000FBF72DFB6FF00301206B01EB850108444B
:104FA00020F00707780707D0502080F31188BFF35F
:104FB0004F8FBFF36F8FFEE70025B8F1000F0FD0C2
:104FC0005FF00000221818F8001082F8341018F86A
:104FD000001011B1401C1028F4D384F8435001E0B4
:104FE00084F83450382E00D33726E662C4E91365BE
:104FF000201D00F0BAFA04F1180000F0B6FA24619E
:10500000C6F138006462A061656584F85850524664
:105010005946384600F05EFA2060B9F1000F01D021
:10502000C9F8004000F000B830BCBDE8C09F0000E7
:1050300030B5114900E011460A688242FBD34B6843
:105040005C18844203D140681844486008464368AD
:105050001C18944209D1084C183C2468A24209D07B
:1050600052681A4442600A6812680260814200D0A5
:10507000086030BD0460F9E7C400002070B500246A
:1050800041600B4D0061914206D8D11A826991426C
:1050900006D2011D286907E09A4203D2994201D342
:1050A000012403E0011DE86800F062FA204670BDAB
:1050B0009400002010B5044600F07EFAA06B28B1E1
:1050C0005FF0000400F098FA204610BD0124F9E7D3
:1050D00030B589B03C4D6EE00498002806DADDE971
:1050E0000601059A90470498002864DB069C6069D5
:1050F00010B1201D00F004FA03A800F0D7F8024612
:1051000004980A2857D2DFE800F00505052D334A38
:1051100005052D3394F8280040F0010084F828009C
:105120000599A069059B01442046FFF7A7FF68B3D6
:10513000216A2046884794F8280040073BD5002084
:1051400000900598A169002342181946204601F0F5
:10515000BDF8D8B9502080F31188BFF34F8FBFF34B
:105160006F8FFEE714F8280F20F00100207022E076
:1051700094F8280040F0010084F828000598A06108
:1051800028B1811813462046FFF778FF13E050201E
:1051900080F31188BFF34F8FBFF36F8FFEE794F852
:1051A0002800810703D4204600F03AFA03E020F0FB
:1051B000010084F82800002204A9286800F0D2FD2C
:1051C000002889D109B030BD940000202DE9FC41B0
:1051D0000F46054600F074FB01A800F067F804468E
:1051E000019818B100F0E0FFBDE8FC81254EAFB199
:1051F00030690068D0B30027291B3A46306800F0B8
:1052000091FA00F0D1FF0028EED11F494FF08050F5
:105210000860BFF34F8FBFF36F8FE5E7A542EBD870
:1052200000F0C2FFF0682746C068C468201D00F087
:1052300067F994F82800410719D5A0692B46411950
:105240003A462046FFF71AFFA8B100200346014660
:1052500000902A46204601F039F860B9502080F3CA
:105260001188BFF34F8FBFF36F8FFEE707E020F089
:10527000010084F82800216A20468847B4E7012706
:10528000BAE700009400002004ED00E00648416BFE
:10529000096829B1416BC968C9684968816270476A
:1052A0004FF0FF31FAE700005800002070B50546C6
:1052B00000F098FE064E0446B068844203D200F027
:1052C00009F8012000E0002028602046B46070BD8D
:1052D00094000020F8B5194D20E0C068C468066845
:1052E000201D00F00DF9216A2046884794F8280017
:1052F000400713D5A0693044B04206D924616060EC
:10530000211DE86800F034F908E00020034601465A
:1053100000903246204600F0D9FF38B1E8680168B5
:105320000029DAD12969C5E90310F8BD502080F3BE
:105330001188BFF34F8FBFF36F8FFEE794000020FB
:1053400008484068401C4FF0500080F3118804D09A
:10535000BFF34F8FBFF36F8FFEE7BFF34F8FBFF3E6
:105360006F8FFEE7CC000020074CE068016841B178
:10537000C0680021D0F80000FFF728FFFFF7A8FE63
:10538000F3E701210020F7E7940000202DE9F04128
:10539000044600F011F994F9455004F1240609E09F
:1053A000606A48B1304600F0C7FE08B100F00AFA62
:1053B0006D1E6DB2002DF3DC4FF0FF3684F84560B2
:1053C00000F01AF900F0F8F894F9445004F11007CD
:1053D00009E0206948B1384600F0AEFE08B100F09F
:1053E000F1F96D1E6DB2002DF3DC84F84460BDE868
:1053F000F04100F001B900002DE9F0410546002719
:1054000000F05EFA324E306808B9FFF74DFD706962
:1054100005424ED1C5B3083568070ED005F0070028
:10542000C0F108000544680707D0502080F31188B8
:10543000BFF34F8FBFF36F8FFEE72DB370688542C8
:1054400037D82348183001460C6801E020460C4646
:105450006168A94202D221680029F7D131688C42E3
:1054600027D007682168016060680837411B102950
:105470000FD96019420708D0502080F31188BFF37C
:105480004F8FBFF36F8FFEE713E041606560FFF75A
:10549000CFFD61687068401A7060B268904200D2B7
:1054A000B060706901430020C4E90001F068401C4D
:1054B000F06000F079FE780707D0502080F3118863
:1054C000BFF34F8FBFF36F8FFEE73846BDE8F08123
:1054D000AC00002010B5031F4FF080741C601B1F30
:1054E00021F001011960191F044B0B6014390A6087
:1054F000091F6FF0020244380A6010BD41530008D2
:10550000D0E9013201699A60D0E901235A604A6802
:10551000824201D182684A60002202610868401E0E
:105520000860086870470000034B036003F15C00EB
:10553000086080201060704740090020044B036021
:1055400003F15C0008604FF4807010607047000049
:105550009C0B002000F108014FF0FF32C0E901125E
:10556000C160016100210160704700210161704745
:1055700030B50B685A1C02D000F1080202E0026943
:1055800004E02246546825689D42FAD953684B606E
:1055900099608A60516008610168491C016030BDF2
:1055A00042684A6093688B609368596091600861B3
:1055B0000168491C01607047502080F31188BFF3D7
:1055C0004F8FBFF36F8F0A494868401C486001281D
:1055D0000CD10848006810F0FF0F07D0502080F36E
:1055E0001188BFF34F8FBFF36F8FFEE77047000046
:1055F000CC00002004ED00E00849486828B1401EB6
:10560000486001D180F311887047502080F31188E1
:10561000BFF34F8FBFF36F8FFEE70000CC00002079
:1056200070B500282AD0164DA0F108046068696999
:10563000084207D1502080F31188BFF34F8FBFF38A
:105640006F8FFEE722683AB1502080F31188BFF3D4
:105650004F8FBFF36F8FFEE78843606000F030F933
:1056600060686968084468602046FFF7E1FC2869C3
:10567000401C2861BDE8704000F096BD70BD000080
:10568000AC0000204FF0E02000210161816105495C
:105690004FF47A720968B1FBF2F1491E41610721AA
:1056A000016170475400002010B5FAF72BFE114934
:1056B00010280ED300F1E02090F8F0030A78904211
:1056C00007D2502080F31188BFF34F8FBFF36F8F45
:1056D000FEE709480068896800F4E060884207D95D
:1056E000502080F31188BFF34F8FBFF36F8FFEE719
:1056F00010BD0000CC0000200CED00E010B5084B00
:10570000002200BF53F832401CB1521C082AF9D3C2
:1057100010BD43F8321003EBC201486010BD000019
:105720002403002070B515460E460446FFF744FFDB
:1057300094F944100020491C01D184F8440094F9E4
:105740004510491C01D184F84500FFF755FFA06BB7
:1057500028B92A46314604F1240000F051F82046C9
:10576000BDE87040FFF712BE10B5020014D00F481C
:10577000006B38B1502080F31188BFF34F8FBFF317
:105780006F8FFEE700F09CF800211046FFF766FAE5
:1057900000F00AFD002807D105494FF0805008604D
:1057A000BFF34F8FBFF36F8F10BD00005800002074
:1057B00004ED00E002490A6A0260C968416070476E
:1057C0005800002001490120C8617047580000209E
:1057D00010B50C4650B1094909681831FFF7C8FEE9
:1057E0002046BDE810400121FFF738BA502080F371
:1057F0001188BFF34F8FBFF36F8FFEE75800002073
:1058000070B514460D4668B10A4909681831FFF7AA
:10581000C7FE0CB14FF0FF3521462846BDE8704069
:10582000FFF71CBA502080F31188BFF34F8FBFF3EE
:105830006F8FFEE75800002030B587B00024039436
:1058400005AA04A903A80494FFF76EFEDDE903018D
:105850000094CDE90110002315A11748059A00F026
:1058600087FB164D0028E8621FD000F0FFFC0128DE
:1058700009D0401C19D1502080F31188BFF34F8FFD
:10588000BFF36F8FFEE7502080F31188BFF34F8F77
:10589000BFF36F8F4FF0FF30A86201206861EC60AA
:1058A00007B0BDE8304000F045B807B030BD00009B
:1058B00049444C4500000000F54E00085800002007
:1058C0000248016B491C016370470000580000202A
:1058D000164810B5016B11B10121C16110BD002145
:1058E000C1610169124A01E0B9B1491E01EB8103AE
:1058F00052F82330002BF7D001EB810302EB830237
:1059000002F1080453685B685360A34201D15B68ED
:105910005360DA680260016110BD502080F3118885
:10592000BFF34F8FBFF36F8FFEE7000058000020DA
:10593000640300201CB537480168374A914207D1FB
:10594000502080F31188BFF34F8FBFF36F8FFEE7B6
:1059500000683149491E884207D1502080F31188E0
:10596000BFF34F8FBFF36F8FFEE72C49087801908C
:10597000FF20087008788DF800009DF800009DF861
:10598000002000F0F000904207D0502080F31188F2
:10599000BFF34F8FBFF36F8FFEE79DF80000204CE1
:1059A00000F0500020700720A06005E09DF8002066
:1059B00052008DF80020401E9DF800201206F5D4FC
:1059C000A060032807D0502080F31188BFF34F8FC9
:1059D000BFF36F8FFEE74FF44070A060019808702E
:1059E0000C482030016841F470010160016841F009
:1059F00070410160FFF746FE00206060FAF74AFC44
:105A00000848016841F040410160FAF72FFC00208E
:105A10001CBD000000ED00E071C20F4100E400E099
:105A2000CC00002034EF00E010B5502080F3118846
:105A3000BFF34F8FBFF36F8F00F0DAFA18B104494C
:105A40004FF080500860002080F3118810BD0000E6
:105A500004ED00E038B5049D18B153B1CAB181B16D
:105A600020E0502080F31188BFF34F8FBFF36F8F7A
:105A7000FEE7502080F31188BFF34F8FBFF36F8F85
:105A8000FEE7502080F31188BFF34F8FBFF36F8F75
:105A9000FEE739B1502080F31188BFF34F8FBFF379
:105AA0006F8FFEE750241C46012384F846302B46B6
:105AB0000094FFF74FFA204638BD000070B50D4640
:105AC000040025D0FFF778FDD4E90F20216802FB00
:105AD0000011A1600021A163216861600A46D4E938
