:020000040800F2
:10000000582000200D030008471800080B180008AE
:100010004518000843060008451F000800000000BE
:100020000000000000000000000000002D02000899
:10003000450600080000000089020008591A00085F
:1000400027030008270300082703000827030008E8
:1000500027030008270300082703000827030008D8
:1000600027030008270300082703000827030008C8
:1000700027030008270300082703000827030008B8
:1000800027030008270300082703000827030008A8
:100090002703000827030008270300082703000898
:1000A00027030008251B0008270300082703000872
:1000B00027030008000000000000000027030008DC
:1000C00027030008000000000000000027030008CC
:1000D00000000000270300082703000800000000BC
:1000E00027030008270300080000000000000000AC
:1000F0000000000000000000000000000000000000
:1001000000000000000000000000000027030008BD
:10011000000000000000000027030008270300087B
:100120002703000827030008270300082703000807
:10013000270300080000000000000000000000008D
:1001400027030008270300082703000827030008E7
:1001500027030008270300082703000827030008D7
:1001600027030008270300082703000800000000F9
:10017000270300082703000800000000000000001B
:1001800027030008270300082703000800F002F8EF
:1001900000F03CF80AA090E8000C82448344AAF1E5
:1001A0000107DA4501D100F031F8AFF2090EBAE8E3
:1001B0000F0013F0010F18BFFB1A43F0010318479B
:1001C0008C360000AC360000103A24BF78C878C1E5
:1001D000FAD8520724BF30C830C144BF04680C604D
:1001E000704700000023002400250026103A28BF95
:1001F00078C1FBD8520728BF30C148BF0B60704799
:100200001FB503F0CBFA1FBD10B510BD00F0E0F92B
:100210001146FFF7F5FF01F0A7FE00F0FEF903B469
:10022000FFF7F2FF03BC00F005FA00002C4B196841
:10023000086800F05AB880F30988BFF36F8F4FF059
:10024000000080F311887047000000000848006833
:10025000006880F308884FF0000080F3148862B6CD
:1002600061B6BFF34F8FBFF36F8F00DF00BF00BFDA
:1002700008ED00E0DFF80C00016841F47001016056
:10028000704700BF88ED00E0EFF30980BFF36F8F88
:10029000134B1A681EF0100F08BF20ED108A20E9DA
:1002A000F04F106009B44FF0500080F31188BFF395
:1002B0004F8FBFF36F8F02F03FFD4FF0000080F3D0
:1002C000118809BC1968086800F014B81EF0100FF6
:1002D00008BF00F014B880F30988BFF36F8F704730
:1002E00018000020EFF30580704730C8B0E8C04F19
:1002F000FFF7A1BF30C8B0E8C04FFFF7E7BFB0ECD1
:10030000088AB0EC08CAFFF7E6BF0000094880473A
:1003100009480047FEE7FEE7FEE7FEE7FEE7FEE7E7
:10032000FEE7FEE7FEE7FEE704480549054A064BFF
:1003300070470000E91A00088D010008581A0020D3
:1003400058200020581C0020581C002053EA020CA2
:1003500000F069802DE9F04B4FF00006002B1FBF25
:10036000B3FA83F503FA05F424FA05F65E4012BFEA
:100370001643B2FA82F502FA05F4C5F120051EBF54
:1003800022FA05FC44EA0C04203556EA044C4FEAF4
:10039000144418BF641C4FF000084FF0000990424D
:1003A00071EB030C39D3002919BFB1FA81F701FAB7
:1003B00007F6B0FA80F700FA07F6C7F120071EBF6C
:1003C00020FA07FC46EA0C062037B6FBF4FCA7EB44
:1003D0000507103F07F01F0BCBF120060CFA0BFBB3
:1003E0002CFA06F644BFB3460026202FA4BF5E4673
:1003F0004FF0000B5BEA060C08BF4FF0010B19EB46
:100400000B09ABFB027C48EB0608C01B06FB02CCC9
:100410000BFB03CC71EB0C01C1E70B4602464146D6
:100420004846BDE8F08B13B54FF000004FF00001D7
:10043000AFF30080BDE81C407047032A40F23080D3
:1004400010F0030C00F0158011F8013BBCF1020F15
:10045000624498BF11F801CB00F8013B38BF11F896
:10046000013BA2F1040298BF00F801CB38BF00F8AD
:10047000013B11F0030300F05780083AC0F00880F8
:1004800051F8043B083A51F804CBA0E80810F5E70E
:10049000121D5CBF51F8043B40F8043BAFF30080F1
:1004A000D20724BF11F8013B11F801CB48BF11F866
:1004B000012B24BF00F8013B00F801CB48BF00F836
:1004C000012B704702F0FF0343EA032242EA024293
:1004D00000F05EB84FF0000200B513469446964611
:1004E000203922BFA0E80C50A0E80C50B1F1200147
:1004F000BFF4F7AF090728BFA0E80C5048BF0CC0F5
:100500005DF804EB890028BF40F8042B08BF704752
:1005100048BF20F8022B11F0804F18BF00F8012BC4
:10052000704770477047704710B5203AC0F00B8095
:10053000B1E81850203AA0E81850B1E81850A0E8E7
:100540001850BFF4F5AF5FEA027C24BFB1E8185041
:10055000A0E8185044BF18C918C0BDE810405FEAB1
:10056000827C24BF51F8043B40F8043B08BF70472D
:10057000D20728BF31F8023B48BF11F8012B28BF32
:1005800020F8023B48BF00F8012B70474FF00002F3
:100590000429C0F0128010F0030C3FF49DAFCCF1A1
:1005A000040CBCF1020F18BF00F8012BA8BF20F803
:1005B000022BA1EB0C01FFF78FBF5FEAC17C24BFC8
:1005C00000F8012B00F8012B48BF00F8012B704701
:1005D000754600F02BF8AE4605006946534620F0FC
:1005E0000700854618B020B5FFF79EFEBDE8204005
:1005F0004FF000064FF000074FF000084FF0000BDF
:1006000021F00701AC46ACE8C009ACE8C009ACE891
:10061000C009ACE8C0098D46704710B50446AFF379
:1006200000802046BDE81040FFF7F9BD0048704744
:10063000F419002001491820ABBEFEE72600020095
:100640007047FEE7704772B6FEE700002DE9FC4FE9
:10065000DFF880A1002301250AF1040B03244FF0E9
:100660000F0C0BF1040EAEE005FA03F632406FD02A
:100670004F68012F05D0022F03D0112F01D0122F68
:1006800017D1D0F808905F0004FA07F829EA0809A2
:100690000097D1F80C8008FA07F848EA0908C0F872
:1006A00008804768B7430E79C6F300169E403E4364
:1006B0004660C6684FEA430804FA08F7BE4301974C
:1006C0008F6807FA08F73743C7604E68022E01D0DB
:1006D000122E13D1DE0800EB86060096366A5F07FD
:1006E000FF0E0CFA07F926EA0906D1F8109009FA6C
:1006F00007F949EA0609009EC6F820900768019E9E
:10070000B7430E7906F0030606FA08F63E43066084
:100710004E68F60056D5304E376E47F00107376603
:10072000366E23F0030706F0010600962B4E3E447A
:10073000B146B6689F074FEA17780CFA08F7BE4330
:10074000B0F1904F05D0264FB84204D1012708E000
:1007500038E0002705E0234FB84201D1022700E02E
:10076000072707FA08F73743C9F80870DAF8006076
:100770005746D1F8048096435FEAC83800D516433F
:100780003E60DBF800605F46D1F8048096435FEA84
:10079000883800D516433E60DEF800607746D1F811
:1007A000048096435FEAC82800D516433E60094F8F
:1007B0000C373E68D1F8048096435FEA882800D55C
:1007C00016433E605B1C0A6832FA03F67FF44CAFB6
:1007D00000F00AB80004014000100240000001408F
:1007E00000040048000800481CBCBDE8E08F000081
:1007F00001488068704700000800002002488168B6
:1008000002781144816070470800002010B5002470
:10081000032000F08DF80F2000F008F808B1012443
:1008200001E000F03DF8204610BD000000B5014693
:1008300087B00022192000F05BF8192000F04AF878
:100840001348016E41F400610166006E05A900F4D1
:1008500000600690684600F08FFA00F0BFFA0D497C
:100860000D4AB0FBF1F10D48491E0260416040F2B3
:10087000E7320021C0E90321816000F0CCFD10B116
:10088000012007B000BD054800F0F8FDF9E70000C1
:100890000010024040420F00002C01401C010020CB
:1008A0000B4882B0016E41F001010166016E01F05A
:1008B00001010091816D41F080518165806D0022C0
:1008C00000F0805000900F21901E02B000F010B890
:1008D00000100240002809DB00F01F0201219140B6
:1008E0004009800000F1E020C0F8001170470000CE
:1008F000F0B40E4B1B680C46C3F30223C3F107058B
:10090000042D00D90425191D072901D2002300E078
:10091000DB1E012606FA05F1491E214099409E4042
:10092000761E16403143F0BC01F00DBB0CED00E02B
:10093000064900F0070208684FF6FF03184040EA36
:100940000220034A10430860704700000CED00E0ED
:100950000000FA051649B0F5007F0868C0F3412091
:1009600009D0022805D0086820F4C06040F48060F7
:100970000860002070470128FBD0086820F4C060A0
:1009800040F4007008600B483222006850430A4A65
:10099000B0FBF2F0401C00E0401E4A69520501D550
:1009A0000028F9D148694005E3D5032070470000CD
:1009B000007000401400002040420F000248006810
:1009C00000F4C06070470000007000402DE9F84F4F
:1009D0000446002700889C4D3E46000515D5E06B77
:1009E00060B1B0F5000F04D0B0F5400F2BD0012757
:1009F0000AE0E86840F48030E86024E00021201D2F
:100A000000F022FF07001ED03E462068800338D544
:100A1000A86D4FF00008C00009D4A86D40F08050C8
:100A2000A865A86D4FF0010800F080500090DFF835
:100A30001CA2DAF8001041F48071CAF80010FFF728
:100A4000D7FE814610E0D5F88800E16B20F4400025
:100A50000843C5F88800D8E7FFF7CAFEA0EB0900F5
:100A6000022801D9032704E0DAF80000C005F3D515
:100A7000EFB33E46B8F1000F03D0A86D20F08050D0
:100A8000A8652078C00707D0D5F88800216A20F033
:100A900003000843C5F888002078800707D5D5F8FB
:100AA0008800616A20F00C000843C5F888002078AF
:100AB000800607D5D5F88800A16A20F44060084375
:100AC000C5F888002088800507D5D5F88800616BB7
:100AD00020F440200843C5F888002088400509D547
:100AE000D5F88800A16B20F44010084300E02EE008
:100AF000C5F888002078400607D5D5F88800E16A57
:100B000020F440500843C5F888002088C00507D568
:100B1000D5F88800216B20F440300843C5F88800E0
:100B200020884FF0006780044FF080684ED5D5F8DC
:100B30008800216C20F040600843C5F88800206CD4
:100B4000B8423BD1E86840F48010E8603EE0D5F858
:100B5000900010F4407014D0216D814211D0D5F86E
:100B60009000D5F8901020F4407041F48031C5F821
:100B70009010D5F8901021F48031C5F89010C5F888
:100B80009000C00711D0FFF733FE074641F28839C5
:100B900007E000BFFFF72CFEC11B494501D9032622
:100BA00068E7D5F890008007F4D5D5F89000216D5E
:100BB00020F440700843C5F890005BE7404505D13C
:100BC0000121201D00F040FE00B1064620684003D0
:100BD00017D5D5F88800616C20F040600843C5F84F
:100BE0008800606CB84204D1E86840F48010E86086
:100BF00007E0404505D10121201D00F025FE00B190
:100C000006462088400411D5D5F88800A16C20F054
:100C100040500843C5F88800A06CB0F1805F05D152
:100C20000221201D00F010FE00B1064620880004BD
:100C300006D555F8880FE16C20F080400843286005
:100C4000304600F005B8000000100240007000407F
:100C500018BCBDE8E08F00002DE9F0470F46050005
:100C600058D0404E306800F00700B84209D23068D2
:100C700020F0070038433060306800F00700B842C9
:100C800048D12878384CC0072CD06868032811D088
:100C9000022812D0216898B1490500293ADAA168E2
:100CA00021F003010143A160FFF7A2FD804641F25C
:100CB000883910E021688901EFE721688903ECE7B2
:100CC0008907EAE7FFF794FDA0EB0801494502D93F
:100CD0000320BDE8F087A068696800F00C00B0EB65
:100CE000810FEFD12878800705D5A068A96820F08A
:100CF000F0000843A060306800F00700B8420BD94C
:100D0000306820F0070038433060306800F007009A
:100D1000B84201D00120DCE72878400705D5A0685B
:100D2000E96820F4E0600843A0602878000706D551
:100D3000A068296920F4605040EAC100A06000F07A
:100D40005FF8A168094AC1F30311515C01F01F016A
:100D5000C8400749086007480068BDE8F047FFF74A
:100D600065BD00000020024000100240F03700087E
:100D7000140000200C0000200F2202600C4A93682F
:100D800003F003034360936803F0F0038360936808
:100D900003F4E063C36092684FF4E06303EAD202B5
:100DA00002610448006800F0070008607047000016
:100DB000001002400020024005480649006889688A
:100DC000054AC1F30221515C01F01F01C840704780
:100DD0001400002000100240303800080548064981
:100DE00000688968054AC1F3C221515C01F01F0106
:100DF000C84070471400002000100240303800083E
:100E000070B52549002318468A68CC6812F00C0298
:100E100004F00306214C4FEA640509D00C2A05D0E2
:100E2000042A32D0082A00D1284670BD012E10D1E4
:100E30000B681B0704D4D1F89430C3F3032302E0FA
:100E40000B68C3F30313164E56F82330DAB10C2A9D
:100E5000EBD1C86800F00300022818D0032818D08E
:100E60001846CA68CB68C2F30212C3F30623434391
:100E7000521CB3FBF2F2C868C0F34160401C400052
:100E8000B2FBF0F070BD184670BD204670BD204624
:100E9000E7E72846E5E70000001002400024F400E0
:100EA000003800082DE9F84304006FD0FE4DA86813
:100EB00000F00C06E86800F003072078C00664D54F
:100EC00076B10C2E01D1012F0AD0A0690028286824
:100ED0007AD040F001002860FFF78AFC80465DE090
:100EE0002868800702D5A0690028DED0216A28681A
:100EF000000703D5286800F0F00004E0D5F894005E
:100F0000F02202EA1010814216D9084600F032FDA4
:100F100000283BD1286840F0080028602868216A32
:100F200020F0F000084328606868E16920F47F4001
:100F300040EA0120686016E0286840F00800286058
:100F40002868216A20F0F000084328606868E16999
:100F500020F47F4040EA0120686026B9206A00F052
:100F600009FD0028D5D1FFF74BFFA968CF4AC1F38F
:100F70000311515C01F01F01C840CD490860CD4804
:100F80000068FFF753FC00287ED12EE0CAE000BFC6
:100F9000FFF72EFCA0EB0800022876D8286880070F
:100FA000F6D5286840F0080028602868216A20F0FB
:100FB000F000084328606868E16920F47F4040EA57
:100FC0000120686011E0FFE720F001002860FFF7D2
:100FD0000FFC804606E000BFFFF70AFCA0EB08000C
:100FE0000228DAD828688007F6D42078C00740D0D5
:100FF000082E18D00C2E01D1032F14D06068B0F544
:10100000803F17D0B0F5A02F286817D020F480308B
:101010002860286820F4802028606068E0B1FFF72D
:10102000E7FB804614E02868800322D5606800282A
:1010300078D01EE0286840F48030EDE740F480204E
:101040002860F7E7FFF7D4FBA0EB08006428A4D8DA
:1010500028688003F6D50CE0FFF7CAFB804605E060
:10106000FFF7C6FBA0EB0800642896D82868800329
:10107000F6D4207880073BD5042E11D00C2E01D158
:10108000022F0DD0E06801E0B6E1FFE000282868FB
:101090001ED040F480702860FFF7AAFB07460CE0E2
:1010A000286840050CD5E0680028C1D008E000BFE2
:1010B000FFF79EFBC01B022893D828684005F7D590
:1010C0006868217C20F0F85040EA016068600FE019
:1010D00020F480702860FFF78BFB074605E000BF17
:1010E000FFF786FBC01B0228B1D828684005F7D45B
:1010F0002078000729D560690028D5F8940012D01F
:1011000040F00100C5F89400FFF772FB074604E0C9
:10111000FFF76EFBC01B022899D8D5F89400800712
:10112000F6D512E02BE120F00100C5F89400FFF79E
:101130005FFB074605E000BFFFF75AFBC01B022814
:1011400085D8D5F894008007F6D42078400766D576
:10115000A86D0027C00008D4A86D40F08050A86595
:10116000A86D012700F08050009053480168C90520
:1011700012D40168814641F480710160FFF738FBA9
:10118000804605E0FFF734FBA0EB080002287DD87D
:10119000D9F80000C005F5D5A068012816D00528AB
:1011A000D5F8900017D020F00100C5F89000D5F8D0
:1011B000900020F0040000BFC5F89000A06841F244
:1011C0008839C0B1FFF714FB80460FE0D5F89000D6
:1011D00040F00100F0E740F00400C5F89000F5E7AA
:1011E000FFF706FBA0EB080149454FD8D5F8900062
:1011F0008007F5D50EE0FFF7FBFA804606E000BF5A
:10120000FFF7F6FAA0EB080149453FD8D5F8900062
:101210008007F5D41FB1A86D20F08050A865207814
:10122000800628D5606A0028D5F8980012D040F0D2
:101230000100C5F89800FFF7DBFA074605E000BF9C
:10124000FFF7D6FAC01B022820D8D5F898008007EF
:10125000F6D510E020F00100C5F89800FFF7C8FAB5
:10126000074604E0FFF7C4FAC01B02280ED8D5F8E1
:1012700098008007F6D4A06AA8B1022824D00C2ECA
:101280007DD0286820F08070286000E0B3E02868F6
:10129000000103D4E86820F00300E860E86807492B
:1012A0000840E8600CE09FE000100240F0370008C2
:1012B000140000200C00002000700040FFFFEEFE34
:1012C000FFF796FA044699E0E868E26A00F0030145
:1012D000914226D1216B00F0700209011039914230
:1012E0001FD1626B00F4FE41B1EB022F19D194F8CB
:1012F000382000F07841B1EBC26F12D1A18F00F419
:10130000C00249084905A1F50011914209D194F89C
:10131000401000F0C06049084906A1F10071814207
:101320004BD00C2E6FD0286840016CD4286820F078
:1013300080702860FFF75CFA064604E0FFF758FA71
:10134000801B022857D828688001F7D4F4E90B01E4
:101350006FF00F0202EB01110843218A5204490881
:1013600002EB4151A26841EA02210843217D4FF07E
:101370007E42490802EB41610843217B00E042E0E4
:1013800040EAC160E968214A11400843E8602868E2
:1013900040F080702860E86840F08070E860FFF7F7
:1013A00027FA044605E000BFFFF722FA001B0228D7
:1013B00021D828688001F7D523E02868800120D44F
:1013C000286840F080702860E86840F08070E8602D
:1013D000FFF70EFA044604E0FFF70AFA001B0228A2
:1013E00009D828688001F7D50BE000BFFFF700FAA5
:1013F000001B022802D90320BDE8F8832868800179
:10140000F4D40020F8E70120F6E700008C809D016D
:1014100070477047704710B5040003D094F83D0042
:1014200010B107E0012010BD002084F83C002046E8
:1014300000F022F8022084F83D00211D206800F011
:1014400077FB012084F8480084F83E0084F83F00D0
:1014500084F8400084F8410084F8420084F8430096
:1014600084F8440084F8450084F8460084F8470076
:1014700084F83D00002010BD7047000090F83D103A
:10148000012901D001207047022180F83D10016838
:10149000CA6842F00102CA6000680B49884205D060
:1014A000B0F1804F02D00949884207D18168084ACB
:1014B0001140062906D0B1F5803F03D0016841F004
:1014C0000101016000207047002C014000400140F4
:1014D00007000100704770B50446006801694FF0CD
:1014E0000005C943890715D4C168C943890711D4C8
:1014F000E91E01610120207720688069800720466D
:1015000002D0FFF7E7FF04E000F0A7F8204600F064
:10151000A5F8257720680169C943490717D4C16830
:10152000C943490713D46FF00401016102202077F9
:101530002068806910F4407F204602D0FFF7CAFF80
:1015400004E000F08AF8204600F088F8257720684B
:101550000169C943090716D4C168C943090712D4F0
:101560006FF008010161042020772068C0698007BE
:10157000204602D0FFF7AEFF04E000F06EF82046F0
:1015800000F06CF8257720680169C943C90617D4B3
:10159000C168C943C90613D46FF010010161082066
:1015A00020772068C06910F4407F204602D0FFF702
:1015B00091FF04E000F051F8204600F04FF8257745
:1015C00020680169C943C90708D1C168C943C9076F
:1015D00004D1891E0161204600F042F820680169AB
:1015E000C943090609D4C168C943090605D46FF087
:1015F000800101612046FFF70CFF20680169C943A3
:10160000C90509D4C168C943090605D46FF48071BE
:1016100001612046FFF7FCFE20680169C9434906C5
:1016200009D4C168C943490605D46FF0400101617E
:10163000204600F01FF820680169C94389060BD4D1
:10164000C168C943890607D46FF0200101612046B3
:10165000BDE87040FFF7DEBE70BD70477047000008
:1016600000680349884201D1FFF7C8B870470000FD
:10167000002C0140704710B5040002D0A06F10B1DB
:1016800007E0012010BD002084F87400204600F01F
:1016900025F82420A0672068016821F0010101607D
:1016A000204600F00DFB0128ECD0606A10B1204606
:1016B00000F074FA2068416821F49041416020688C
:1016C000816821F02A0181602068016841F00101F0
:1016D00001602046BDE8104000F0C4BA30B59BB0B0
:1016E0000446142115A8FEF7F5FE54216846FEF7BE
:1016F000F1FE16492068884226D10224002568465A
:1017000009950094FFF762F908B1FEF79CFF1048B5
:10171000816D41F400318165816D01F400311A91D0
:10172000C16C41F00101C164C06C15A900F0010059
:101730001A900C2081E8310003201890072019909E
:101740004FF09040FEF782FF1BB030BD00440040D8
:10175000001002402DE9F8430446806F1F461646EC
:101760000D4620284FD1CDB1C6B194F874000128A0
:1017700049D0012084F874004FF00008C4F880803C
:101780002120A067FFF734F8A4F850608146A4F840
:101790005260A068B0F5805F03D004E00120BDE88E
:1017A000F883206928B12E465FF0000584F8748024
:1017B00010E00026FAE78021204600F071FBB8B95E
:1017C000C6B116F8010B21680885B4F85200401E16
:1017D000A4F85200B4F852004B464FF000020097B4
:1017E0000028E8D14FF04001204600F059FB30B10D
:1017F0000320D4E735F8020BC0F30800E3E720200C
:10180000A0670020CBE70220C9E7FEE70C4810B52F
:101810000A4901604FF4E1314160002181600C22EE
:10182000C160C0E904128161C16101624162FFF7D8
:1018300022FF002801D072B6FEE710BD0044004030
:1018400098000020FEE7FEE72DE9F041444C0546F4
:101850008846E0680026810728680DD0E16801F01D
:101860000301814216D1A8B1E0686968C0F3021093
:10187000401C88420ED120E0012804D0022805D067
:10188000032807D108E02168890701E0216849059C
:10189000002907DB01265FE02168890302D4216863
:1018A0004903F5E7E1686A686FF00F0321F07301FF
:1018B00003EB021211430143E160206820F08060D5
:1018C0002060FEF795FF074605E000BFFEF790FF9A
:1018D000C01B022837D820680001F7D4B8F1000FE8
:1018E00018D0B8F1010F1DD0287D4FF07E4140087F
:1018F00001EB4060A96840EA01202169194A1140C2
:1019000008432061206840F080602060FEF770FF8F
:1019100007461AE0A868297B000240EAC1602169F5
:10192000114AECE7288A1149400801EB4050A968A8
:1019300040EA012021690E4AE1E700BFFEF758FFA7
:10194000C01B022801D9032606E020680001F5D556
:101950002069A969084320613046BDE8F081000094
:1019600000100240FF80FFF9FF80FF070000E0FF4A
:10197000FF809FFFF8B51C4D06460024A86DC000EF
:1019800002D5FFF71BF80DE0A86D40F08050A86568
:10199000A86D00F080500090FFF710F8A96D21F0BD
:1019A0008051A965B0F5007F04D0802E07D94FF093
:1019B00003040AE0802E08D9A02E01D804E001D14A
:1019C000022402E0702E00D101240848016821F0B1
:1019D000070121430160006800F00700A04201D028
:1019E0000120F8BD0020F8BD001002400020024098
:1019F0000EB508A24FF0FF3407CA8DE80700234652
:101A0000082269460648FFF7A5FE012000F0DAFA31
:101A1000F5E700005461736B20310D0A00000000EF
:101A2000980000200EB508A24FF0FF3407CA8DE8D9
:101A300007002346082269460648FFF78BFE01206F
:101A400000F0C0FAF5E700005461736B20320D0A14
:101A5000000000009800002010B54FF0E020006961
:101A600001F0E6FC012803D0BDE8104001F010BAF7
:101A700010BD10B596B044216846FEF72BFD142129
:101A800011A8FEF727FD4FF40070FEF763FF08B1C1
:101A900072B6FEE71020009001200024602106901D
:101AA000CDE907410221CDE90A100C9028200D90C4
:101AB0000720CDE90E0168461091FFF7F3F908B150
:101AC00072B6FEE70F2011900320CDE912041494A2
:101AD000042111A81594FFF7BFF8002801D072B6B1
:101AE000FEE716B010BD00000B48016841F470011C
:101AF00001600A48016841F0010101600021816034
:101B00000268074B1A4002608214C260026822F425
:101B1000802202608161704788ED00E00010024081
:101B2000FFFFF6EA0148FFF7D6BC00001C010020C9
:101B300070B50268164B4FF08046984201D0B04213
:101B400003D122F070044A682243124C124D98428D
:101B500005D0B04203D0A04201D0A84203D122F464
:101B60004076CA6832434E6922F0800232430260F6
:101B70008A68C2620A688262984203D0A04201D099
:101B8000A84201D1096901630121416170BD0000D2
:101B9000002C0140004001400044014090F8241016
:101BA000C90706D001684A68836A22F400321A43E2
:101BB0004A6090F82410890706D501684A68C36A0C
:101BC00022F480321A434A6090F82410490706D55F
:101BD00001684A68036B22F480221A434A6090F835
:101BE0002410090706D501684A68436B22F40042B5
:101BF0001A434A6090F82410C90606D501688A681D
:101C0000836B22F480521A438A6090F8241089066C
:101C100006D501688A68C36B22F400521A438A60B1
:101C200090F82410490611D501684A68036C22F423
:101C300080121A434A60016CB1F5801F06D1016819
:101C40004A68436C22F4C0021A434A6090F8241098
:101C5000090606D501684A68806C22F40022024316
:101C60004A607047F8B500260446C0F88060FEF769
:101C7000BFFD0546206800686FF07E47000708D565
:101C80002B4600224FF400112046009700F008F97F
:101C900060B92068006840070AD52B4600224FF43F
:101CA00080012046009700F0FBF808B10320F8BD42
:101CB0002020A067E067266684F874600020F8BDE5
:101CC0002DE9F041044600682269A168E6691143E4
:101CD00062690025324311436A4B02686A4E324002
:101CE0000A43026020684168E26821F440511143D0
:101CF00041602168A069994201D0226A10438A6834
:101D000022F4306202438A606049276860488F424B
:101D10000DD1D0F8880010F0030006D0012838D08B
:101D2000022834D0032821D135E001211FE0594990
:101D30008F420BD1D0F8880010F00C0025D0042879
:101D400027D0082823D00C2810D124E09F420DD1A1
:101D5000D0F8880010F4406017D0B0F5806F18D02C
:101D6000B0F5006F13D0B0F5406F14D010214A4881
:101D700000264FF400429F422DD171B1022912D0AA
:101D800004290DD0082971D123E00021EFE70221B9
:101D9000EDE70421EBE70821E9E7FFF70DF801E0A3
:101DA000FFF72EF8E8B3626802EB420181425DD88A
:101DB000B0EB023F5AD8010E0302500818187141C7
:101DC0000023FEF7C3FA354AA0F54071914251D97C
:101DD0004CE01046E7E7E3694FF6EF77934229D1ED
:101DE000092943D2DFE801F005080E420B424242C6
:101DF0002400FEF7E1FF04E0FEF7F0FF01E0FEF74C
:101E0000FFFF70B14100606801EB5001B1FBF0F0E1
:101E100080B2A0F11001B94228D84FF6F07101400C
:101E200000E029E0C0F3420001432068C16023E0E4
:101E30001046E7E7092919D2DFE801F005080E1876
:101E40000B1818181A00FEF7B7FF04E0FEF7C6FFDC
:101E500001E0FEF7D5FF78B1616800EB5100B0FBFF
:101E6000F1F080B2A0F11001B94203D9012503E0DD
:101E70001046F1E72168C86066662846A666BDE898
:101E8000F081000000800040F369FFEF003801405E
:101E900000100240004400400024F400FFFC0F004A
:101EA0002DE9F0479A4617460E4604464FF00009C2
:101EB0004FF02008089D39E0681C37D0FEF798FCE9
:101EC000A0EB0A00A84222D80DB320680168490798
:101ED0002CD5C069C043000528D421684FF40060A8
:101EE00008622068016821F4D0710160206881686F
:101EF00021F001018160C4F87880C4F87C80C4F8C6
:101F0000808000BF84F874900320BDE8F0872068CB
:101F1000016821F4D07101602068816821F001011D
:101F20008160C4F87880C4F87C80EBE72068C069E1
:101F300036EA000004D00020B842BDD00020E4E71B
:101F40000120F9E7FEE70907090E002804DB00F18C
:101F5000E02080F80014704700F00F0000F1E0204E
:101F600080F8141D7047000008B5FEF74FFCFFF71E
:101F700080FD0F48C16C41F00101C164C06C00F0EC
:101F800001000090FFF742FC00F02AF8094A002106
:101F9000094800F053F8094C064A00212060243219
:101FA000074800F04BF8606000F02CF8FEE70000F6
:101FB00000100240A8370008F119000800000020B6
:101FC000251A000810B5EFF3058111B16FF0050473
:101FD00003E0002408B100F0FBFD204610BD000026
:101FE000EFF3058010B16FF00500704704480168F9
:101FF00011B14FF0FF3070470121016000207047A0
:102000006800002010B5EFF3058010B16FF00500F7
:1020100010BD08480168012902D04FF0FF3010BD03
:10202000054A002182F8141D0221016000F038FEEB
:10203000002010BD680000200BE000E02DE9FF410A
:102040004FEA01034FF00005EFF30581039549BB0B
:1020500040B38027182100244AB3166806B13446DD
:1020600096691EB13146761E382E02D21679F607D1
:1020700003D0002004B0BDE8F081566906B1B7086E
:10208000D2F808C0BCF1000F0DD0D5685C2D18D374
:1020900012693AB136B18DE806103A46214601F090
:1020A0009BF903900DE0D6685EB912694AB903AA9C
:1020B000CDE90012BAB2214601F05EF9012800D044
:1020C00003950398D6E700002DE9F041134C0F4625
:1020D0000546E6682068001D00F046FC681C07D134
:1020E00037B12168BDE8F0410D48091D00F08CBCF6
:1020F00020683544B5424560216805D2A06BBDE833
:10210000F041091D00F068BC606B091D00F064FC23
:10211000A06A854200D2A562BDE8F08118000020C7
:10212000580600202DE9F041054600F079FC2D4CC1
:10213000A068401CA06020682B4F10B1606930B3CC
:102140002BE02560A068012827D1002606EB860039
:1021500007EB800000F032FC761C382EF6D32348C3
:1021600000F02CFC2148143000F028FC1F482830D7
:1021700000F024FC1D483C3000F020FC1B4850308F
:1021800000F01CFC194860631430A06305E020686F
:10219000E96AC06A884200D82560606A401C6062B3
:1021A0006864E86A2169884200D9206100EB8000F8
:1021B00007EB8000291D00F027FC00F051FC60694E
:1021C00000280CD02068E96AC06A884207D2084912
:1021D0004FF080500860BFF34F8FBFF36F8FBDE8A3
:1021E000F081000018000020A8010020080600204F
:1021F00004ED00E038B500F013FC104C2068C8B9BD
:102200000F4800F0DBFB0E48143000F0D7FB0C4801
:10221000E060143020610A4B0020F03B009003F195
:10222000500210210A2000F049FE206010B105A1E3
:1022300000F098FCBDE8384000F012BC54000020CB
:102240005C070020546D72510000000030B4026C35
:102250000B46002A0BD0C1681144C1608468A142BA
:1022600001D30168C16030BC1846FEF7E6B830BC47
:1022700070472DE9F041856B174604460026026C35
:1022800082B1C7B1E068FEF7D8F8E168206C091A9E
:10229000E1602268914202D2A168081AE060022F30
:1022A00016D017E02068A8B9A06801F039F90646F1
:1022B0000020A0600EE06068FEF7BFF8216C606847
:1022C00008446060A168884204D32068606001E02F
:1022D00005B16D1E6D1CA5633046BDE8F08110B5DB
:1022E000044690F8590058B101280CD002280FD0AC
:1022F000502080F31188BFF34F8FBFF36F8FFEE73D
:10230000206B00F0C1FB2046BDE8104000F0BCBBD4
:1023100010BD00000F4840F6B831420705D0C01D7F
:102320000C4A20F00700821A891A0B4A0023014444
:10233000C2E900030839183A21F0070111604B6027
:102340000B600B1AC0E9001393604FF0004053601C
:10235000506170473C0E002084000020144E154C44
:10236000A6F29C474FF08058DFF84C9012E000BF77
:1023700000F056FBF068C568281D00F0F5FAA0686B
:10238000401EA0606068401E606000F069FB284647
:10239000FFF7A5FF60680028EAD138680128F9D95D
:1023A000C9F80080BFF34F8FBFF36F8FF2E70000D3
:1023B000440600201800002004ED00E070B51D4622
:1023C000049C51B1C4F80020C4E90F01012120464A
:1023D00000F0A8FD84F84C5070BD2460F4E70000C4
:1023E0002DE9F05F8846DDE90B94154683469100A0
:1023F0009A460A9EA522206BFEF764F86FF003014F
:10240000206B01EB8501084420F00707780707D00F
:10241000502080F31188BFF34F8FBFF36F8FFEE71B
:102420000025B8F1000F0FD05FF00000221818F857
:10243000001082F8341018F8001011B1401C102858
:10244000F4D384F8435001E084F83450382E00D39C
:102450003726E662C4E91365201D00F0BAFA04F1DC
:10246000180000F0B6FA2461C6F138006462A06179
:10247000656584F8585052465946384600F05EFA71
:102480002060B9F1000F01D0C9F8004000F000B899
:1024900030BCBDE8C09F000030B5114900E01146D6
:1024A0000A688242FBD34B685C18844203D14068BF
:1024B00018444860084643681C18944209D1084CE7
:1024C000183C2468A24209D052681A4442600A6843
:1024D00012680260814200D0086030BD0460F9E7F4
:1024E0008400002070B5002441600B4D00619142D2
:1024F00006D8D11A8269914206D2011D286907E0E7
:102500009A4203D2994201D3012403E0011DE868F5
:1025100000F062FA204670BD5400002010B5044659
:1025200000F07EFAA06B28B15FF0000400F098FA8A
:10253000204610BD0124F9E730B589B03C4D6EE06E
:102540000498002806DADDE90601059A9047049808
:10255000002864DB069C606910B1201D00F004FABD
:1025600003A800F0D7F8024604980A2857D2DFE8FB
:1025700000F00505052D334A05052D3394F8280094
:1025800040F0010084F828000599A069059B0144EA
:102590002046FFF7A7FF68B3216A2046884794F8D2
:1025A000280040073BD5002000900598A169002332
:1025B00042181946204601F0BDF8D8B9502080F3E2
:1025C0001188BFF34F8FBFF36F8FFEE714F8280F0A
:1025D00020F00100207022E094F8280040F0010073
:1025E00084F828000598A06128B181181346204678
:1025F000FFF778FF13E0502080F31188BFF34F8F6F
:10260000BFF36F8FFEE794F82800810703D42046BC
:1026100000F03AFA03E020F0010084F828000022DC
:1026200004A9286800F0D2FD002889D109B030BD86
:10263000540000202DE9FC410F46054600F074FBD4
:1026400001A800F067F80446019818B100F0E0FF17
:10265000BDE8FC81254EAFB130690068D0B30027DA
:10266000291B3A46306800F091FA00F0D1FF0028AB
:10267000EED11F494FF080500860BFF34F8FBFF37A
:102680006F8FE5E7A542EBD800F0C2FFF068274660
:10269000C068C468201D00F067F994F8280041075D
:1026A00019D5A0692B4641193A462046FFF71AFF73
:1026B000A8B100200346014600902A46204601F0BA
:1026C00039F860B9502080F31188BFF34F8FBFF302
:1026D0006F8FFEE707E020F0010084F82800216AF0
:1026E00020468847B4E70127BAE7000054000020DD
:1026F00004ED00E00648416B096829B1416BC968E7
:10270000C9684968816270474FF0FF31FAE70000FD
:102710001800002070B5054600F098FE064E0446ED
:10272000B068844203D200F009F8012000E00020E4
:1027300028602046B46070BD54000020F8B5194DE3
:1027400020E0C068C4680668201D00F00DF9216A09
:102750002046884794F82800400713D5A0693044E4
:10276000B04206D924616060211DE86800F034F9A8
:1027700008E000200346014600903246204600F063
:10278000D9FF38B1E86801680029DAD12969C5E9BB
:102790000310F8BD502080F31188BFF34F8FBFF3B3
:1027A0006F8FFEE75400002008484068401C4FF03F
:1027B000500080F3118804D0BFF34F8FBFF36F8FA9
:1027C000FEE7BFF34F8FBFF36F8FFEE78C00002053
:1027D000074CE068016841B1C0680021D0F80000F2
:1027E000FFF728FFFFF7A8FEF3E701210020F7E736
:1027F000540000202DE9F041044600F011F994F94D
:10280000455004F1240609E0606A48B1304600F002
:10281000C7FE08B100F00AFA6D1E6DB2002DF3DCA0
:102820004FF0FF3684F8456000F01AF900F0F8F830
:1028300094F9445004F1100709E0206948B1384682
:1028400000F0AEFE08B100F0F1F96D1E6DB2002D82
:10285000F3DC84F84460BDE8F04100F001B9000009
:102860002DE9F0410546002700F05EFA324E30684F
:1028700008B9FFF74FFD706905424ED1C5B3083561
:1028800068070ED005F00700C0F10800054468078E
:1028900007D0502080F31188BFF34F8FBFF36F8FA5
:1028A000FEE72DB37068854237D8234818300146BB
:1028B0000C6801E020460C466168A94202D22168FA
:1028C0000029F7D131688C4227D007682168016060
:1028D00060680837411B10290FD96019420708D0DA
:1028E000502080F31188BFF34F8FBFF36F8FFEE747
:1028F00013E041606560FFF7CFFD61687068401AC2
:102900007060B268904200D2B060706901430020EC
:10291000C4E90001F068401CF06000F079FE78071F
:1029200007D0502080F31188BFF34F8FBFF36F8F14
:10293000FEE73846BDE8F0816C00002010B5031FAB
:102940004FF080741C601B1F21F001011960191FDA
:10295000044B0B6014390A60091F6FF002024438FF
:102960000A6010BDA9270008D0E9013201699A6008
:10297000D0E901235A604A68824201D182684A60E4
:10298000002202610868401E086008687047000065
:10299000034B036003F15C00086080201060704707
:1029A00084070020044B036003F15C0008604FF4CF
:1029B0008070106070470000E009002000F10801FD
:1029C0004FF0FF32C0E90112C160016100210160D6
:1029D000704700210161704730B50B685A1C02D066
:1029E00000F1080202E0026904E02246546825680A
:1029F0009D42FAD953684B6099608A6051600861C2
:102A00000168491C016030BD42684A6093688B6070
:102A100093685960916008610168491C01607047C2
:102A2000502080F31188BFF34F8FBFF36F8F0A4997
:102A30004868401C486001280CD10848006810F024
:102A4000FF0F07D0502080F31188BFF34F8FBFF3E3
:102A50006F8FFEE7704700008C00002004ED00E05F
:102A60000849486828B1401E486001D180F31188A8
:102A70007047502080F31188BFF34F8FBFF36F8FE3
:102A8000FEE700008C00002070B500282AD0164D0B
:102A9000A0F1080460686969084207D1502080F3FA
:102AA0001188BFF34F8FBFF36F8FFEE722683AB1F3
:102AB000502080F31188BFF34F8FBFF36F8FFEE775
:102AC0008843606000F030F96068696808446860B5
:102AD0002046FFF7E1FC2869401C2861BDE87040F2
:102AE00000F096BD70BD00006C0000204FF0E020AB
:102AF00000210161816105494FF47A720968B1FBD7
:102B0000F2F1491E41610721016170471400002064
:102B100010B5FDF7E7FB114910280ED300F1E020B6
:102B200090F8F0030A78904207D2502080F3118881
:102B3000BFF34F8FBFF36F8FFEE7094800688968C6
:102B400000F4E060884207D9502080F31188BFF379
:102B50004F8FBFF36F8FFEE710BD00008C00002089
:102B60000CED00E010B5084B002200BF53F83240D6
:102B70001CB1521C082AF9D310BD43F8321003EBE4
:102B8000C201486010BD00006801002070B5154604
:102B90000E460446FFF744FF94F944100020491CF8
:102BA00001D184F8440094F94510491C01D184F8FE
:102BB0004500FFF755FFA06B28B92A46314604F1BE
:102BC000240000F051F82046BDE87040FFF712BE27
:102BD00010B5020014D00F48006B38B1502080F3BC
:102BE0001188BFF34F8FBFF36F8FFEE700F09CF8A3
:102BF00000211046FFF768FA00F00AFD002807D10F
:102C000005494FF080500860BFF34F8FBFF36F8FBF
:102C100010BD00001800002004ED00E002490A6A1F
:102C20000260C96841607047180000200149012016
:102C3000C86170471800002010B50C4650B1094912
:102C400009681831FFF7C8FE2046BDE81040012191
:102C5000FFF73ABA502080F31188BFF34F8FBFF3CC
:102C60006F8FFEE71800002070B514460D4668B15E
:102C70000A4909681831FFF7C7FE0CB14FF0FF355C
:102C800021462846BDE87040FFF71EBA502080F369
:102C90001188BFF34F8FBFF36F8FFEE7180000203E
:102CA00030B587B00024039405AA04A903A80494AE
:102CB000FFF76EFEDDE903010094CDE9011000236A
:102CC00015A11748059A00F087FB164D0028E86209
:102CD0001FD000F0FFFC012809D0401C19D1502062
:102CE00080F31188BFF34F8FBFF36F8FFEE7502043
:102CF00080F31188BFF34F8FBFF36F8F4FF0FF301A
:102D0000A86201206861EC6007B0BDE8304000F0C7
:102D100045B807B030BD000049444C4500000000F4
:102D20005D230008180000200248016B491C016364
:102D30007047000018000020164810B5016B11B153
:102D40000121C16110BD0021C1610169124A01E088
:102D5000B9B1491E01EB810352F82330002BF7D0A3
:102D600001EB810302EB830202F1080453685B6804
:102D70005360A34201D15B685360DA68026001616D
:102D800010BD502080F31188BFF34F8FBFF36F8FBA
:102D9000FEE7000018000020A80100201CB53748FD
:102DA0000168374A914207D1502080F31188BFF360
:102DB0004F8FBFF36F8FFEE700683149491E88428D
:102DC00007D1502080F31188BFF34F8FBFF36F8F6F
:102DD000FEE72C4908780190FF20087008788DF8EC
:102DE00000009DF800009DF8002000F0F0009042E7
:102DF00007D0502080F31188BFF34F8FBFF36F8F40
:102E0000FEE79DF80000204C00F0500020700720E5
:102E1000A06005E09DF8002052008DF80020401EC3
:102E20009DF800201206F5D4A060032807D050209A
:102E300080F31188BFF34F8FBFF36F8FFEE74FF41E
:102E40004070A060019808700C482030016841F47F
:102E500070010160016841F070410160FFF746FEBA
:102E600000206060FDF706FA0848016841F0404123
:102E70000160FDF7EBF900201CBD000000ED00E053
:102E800071C20F4100E400E08C00002034EF00E04C
:102E900010B5502080F31188BFF34F8FBFF36F8FB1
:102EA00000F0DAFA18B104494FF0805008600020B1
:102EB00080F3118810BD000004ED00E038B5049DDA
:102EC00018B153B1CAB181B120E0502080F311880C
:102ED000BFF34F8FBFF36F8FFEE7502080F3118851
:102EE000BFF34F8FBFF36F8FFEE7502080F3118841
:102EF000BFF34F8FBFF36F8FFEE739B1502080F3E0
:102F00001188BFF34F8FBFF36F8FFEE750241C462D
:102F1000012384F846302B460094FFF74FFA2046F1
:102F200038BD000070B50D46040025D0FFF778FDD0
:102F3000D4E90F20216802FB0011A1600021A163E8
:102F4000216861600A46D4E90F01401E00FB01219F
:102F5000E16021464FF0FF3001F8440F487004F162
:102F600010008DB1FFF72AFD04F12400FFF726FDC4
:102F7000FFF776FD012070BD502080F31188BFF36C
:102F80004F8FBFF36F8FFEE721690029F0D000F06B
:102F900007FB0028ECD004494FF080500860BFF3D5
:102FA0004F8FBFF36F8FE3E704ED00E02DE9FF479C
:102FB00082B01D468A464FF00008040003D0BAF1E3
:102FC000000F08D011E0502080F31188BFF34F8F1D
:102FD000BFF36F8FFEE7206C38B1502080F311886B
:102FE000BFF34F8FBFF36F8FFEE7022D0AD1E06B67
:102FF000012807D0502080F31188BFF34F8FBFF313
:103000006F8FFEE700F014FA3F4F4FF000094FF0CA
:10301000805648B9049838B1502080F31188BFF326
:103020004F8FBFF36F8FFEE7FFF7FAFCA06BE16BEA
:10303000884207D3022D05D00498D0B1B8F1000F13
:103040001AD01EE02A4651462046FFF712F9616A5F
:1030500019B104F1240000F0A3FA20B13E60BFF3DF
:103060004F8FBFF36F8FFFF7FBFC012006B0BDE869
:10307000F087FFF7F5FC22E06846FFF7CFFD4FF041
:103080000108FFF7EDFCFFF74FFEFFF7C9FC94F9CD
:103090004400401C01D184F8449094F94500401C40
:1030A00001D184F84590FFF7DBFC04A9684600F0E5
:1030B00029F930B12046FFF79DFB00F0A9FA002066
:1030C000D4E7FFF7ADFCA06BE16B884213D1FFF7AB
:1030D000C7FC04F110000499FFF7AEFD2046FFF78E
:1030E00089FB00F095FA00289ED13E60BFF34F8F18
:1030F000BFF36F8F98E7FFF7B3FC2046FFF77AFB2B
:1031000000F086FA90E7000004ED00E02DE9F047BA
:103110001F4690468946040003D0B9F1000F08D03D
:1031200011E0502080F31188BFF34F8FBFF36F8FF2
:10313000FEE7206C38B1502080F31188BFF34F8F29
:10314000BFF36F8FFEE7022F0AD1E06B012807D093
:10315000502080F31188BFF34F8FBFF36F8FFEE7CE
:10316000FFF7D6FC5020EFF3118680F31188BFF3F0
:103170004F8FBFF36F8FA06BE16B884206D3022F96
:1031800004D0002086F31188BDE8F08794F94550FB
:10319000A06B3A4649462046FFF76BF8681C04D0FE
:1031A0006D1C84F845500120ECE7606A0028FAD0D5
:1031B00004F1240000F0F4F90028F4D0B8F1000F75
:1031C000F1D00121C8F80010EDE700002DE9F74724
:1031D000002683B08A46040003D0BAF1000F08D05D
:1031E00011E0502080F31188BFF34F8FBFF36F8F32
:1031F000FEE7206C38B1502080F31188BFF34F8F69
:10320000BFF36F8FFEE700F013F9DFF8F4804FF0A3
:1032100000094FF0805748B9059838B1502080F325
:103220001188BFF34F8FBFF36F8FFEE7FFF7F8FBF7
:10323000A56BC5B151462046FFF708F86D1EA56382
:10324000206950B104F1100000F0AAF928B1C8F8C3
:103250000070BFF34F8FBFF36F8FFFF701FC0120AA
:1032600006B0BDE8F087059808B11EB106E0FFF78B
:10327000F7FB27E06846FFF7D1FC0126FFF7F0FBDC
:10328000FFF752FDFFF7CCFB94F94400401C01D13D
:1032900084F8449094F94500401C01D184F845908D
:1032A000FFF7DEFB05A9684600F02CF80028204651
:1032B0000AD0FFF79FFA00F0ABF92046FFF72EF98E
:1032C0000028B3D00020CBE7FFF728F990B104F134
:1032D00024000599FFF7B0FC2046FFF78BFA00F0B9
:1032E00097F90028A2D1C8F80070BFF34F8FBFF341
:1032F0006F8F9BE72046FFF77DFA00F089F995E78D
:1033000004ED00E02DE9F0410C46050011D0C4B1F8
:10331000FFF786FB174BDA686E682068911B471C25
:1033200017D02F681B6A9F4219D0964217D80124E4
:1033300010E0502080F31188BFF34F8FBFF36F8FE1
:10334000FEE7502080F31188BFF34F8FBFF36F8FDC
:10335000FEE70024FFF784FB2046BDE8F0818842A9
:1033600005D9401A20602846FFF758FCF1E70020F5
:103370002060DCE7180000202DE9FF5F8346DDE9CF
:103380000E87994616468A469000FFF769FA0500AF
:103390001CD05C20FFF764FA040014D000202563E1
:1033A00084F85900CDE90240CDE900874B4632460A
:1033B00051465846FFF714F82046FEF7B3FE0120A9
:1033C00004B000F006B82846FFF75EFB4FF0FF3070
:1033D000F6E730BCBDE8C09FF0B585B0DDE90B6411
:1033E0000A9DA6B1DCB15C2700972663022684F80B
:1033F0005960002604AFCDE90246CDE90057FEF73B
:10340000EFFF2046FEF78EFE049805B0F0BD502079
:1034100080F31188BFF34F8FBFF36F8FFEE750200B
:1034200080F31188BFF34F8FBFF36F8FFEE700006B
:103430000548416919B1006B18B10020704701209F
:103440007047022070470000180000200148C06843
:1034500070470000180000202DE9F0412E4C002795
:10346000206B28B1A069401CA0613846BDE8F081FE
:10347000E668761CE66013D1606B006838B15020B6
:1034800080F31188BFF34F8FBFF36F8FFEE7606B40
:10349000A16B6163A063206A401C2062FFF72AF9D8
:1034A000A06ADFF87880864209D3606B0068A0B11B
:1034B000606BC068C5686868864211D2A0622068E7
:1034C000C06A00EB800158F82100012800D90127CB
:1034D000E0690028C9D00127C7E74FF0FF30EDE7CA
:1034E000281DFFF741FAA86A18B105F11800FFF787
:1034F0003BFAE86A2169884200D9206100EB80012B
:1035000008EB8100291DFFF77FFAE86A2168C96A84
:103510008842CAD30127C8E718000020A80100206C
:1035200070B504004FF0000133D01B4D2868844271
:1035300007D0502080F31188BFF34F8FBFF36F8FF8
:10354000FEE7206D38B1401E2065E36CE26A9A42C6
:103550001FD040B11DE0502080F31188BFF34F8F82
:10356000BFF36F8FFEE7201DFFF7FEF9E06CE0620E
:10357000C0F13800A061E06A2969884200D9286159
:10358000064900EB800001EB8000211DFFF73CFAAB
:103590000121084670BD000018000020A80100208D
:1035A00070B5C068C46854B104F118000646FFF74E
:1035B000DBF9144D286B50B13146134815E050200B
:1035C00080F31188BFF34F8FBFF36F8FFEE7201D8D
:1035D000FFF7CAF9E06A2969884200D928610B49D6
:1035E00000EB800001EB8000211DFFF70DFAE06A7F
:1035F0002968C96A884202D90120E86170BD0020AB
:1036000070BD00001800002030060020A801002036
:103610002DE9F0472C4D00242746286B38B1FFF7E1
:10362000FFF9286B401E2863286B40B146E050200C
:1036300080F31188BFF34F8FBFF36F8FFEE7A96848
:10364000224E0120D1B3A6F5916980463068E0B1E1
:10365000F068C46804F11800FFF786F9201DFFF731
:1036600083F9E06A2969884200D9286100EB80016A
:1036700009EB8100211DFFF7C7F9E06A2968C96AD3
:103680008842E3D3C5F81C80E0E70CB1FFF732F8BD
:10369000AC694CB14FEA0806FFF7DEFE00B1EE61FF
:1036A000641EF9D10020A861E86938B108490127F2
:1036B00038070860BFF34F8FBFF36F8FFFF7D0F964
:1036C0003846BDE8F08700001800002030060020D2
:1036D00004ED00E010B586B0FEF78CFD114C2068BB
:1036E000B8B100200390049005AA04A903A8FFF72D
:1036F00059F9DDE9032102208DE8070000230AA122
:103700000B48059AFFF768FE606010B106B0012013
:1037100010BD502080F31188BFF34F8FBFF36F8F20
:10372000FEE7000054000020546D722053766300C1
:10373000D12700082DE9FF411E46134602000A9DCD
:103740004FF0000016D0144C2768002F0FD0CDE9A1
:1037500000130292062917DAFFF76AFE02284FF0DB
:1037600000030FD0002269462068FFF71FFC04B059
:10377000BDE8F081502080F31188BFF34F8FBFF375
:103780006F8FFEE72A46EEE7002332466946384649
:10379000FFF7BCFCEBE70000540000204FF0407046
:1037A000E1EE100A704700004038000800000000F9
:1037B0000000000000000000000000000002000007
:1037C0000800000000000000000000003838000879
:1037D00000000000000000000000000000000000E9
:1037E00000020000080000000000000000000000CF
:1037F00000000000000000000102030406070809A1
:10380000A0860100400D0300801A060000350C0060
:1038100040420F0080841E0000093D0000127A0023
:103820000024F40000366E010048E801006CDC0260
:10383000000000000102030455535F466F6F6400EF
:1038400055535F5761746572000000006C380008C2
:103850000000002098000000C8010008043900089A
:1038600098000020C01F0000E401000800000000D4
:103870000000000001000000100000000000000037
:1038800000093D00000000000000000000000000F2
:103890000000000000000000000000000000000028
:1038A0000000000000000000000000000000000018
:1038B0000000000000000000000000000000000008
:1038C00000000000000000000000000000000000F8
:1038D00000000000000000000000000000000000E8
:1038E00000000000000000000000000000000000D8
:1038F000000000000000000000000000AAAAAAAA20
:0439000000000000C3
:040000050800018D61
:00000001FF
